:020000040800F2
:10000000785F00201D23000885040008870400088D
:100010008B0400088F04000893040008000000000F
:10002000000000000000000000000000290200089D
:1000300097040008000000006D020008D9200008A5
:100040003723000837230008372300083723000828
:100050003723000837230008A1040008B104000872
:10006000C1040008D1040008E10400083723000897
:1000700037230008372300083723000837230008F8
:1000800037230008372300083723000837230008E8
:10009000372300083723000837230008F10400083D
:1000A00037230008372300083723000837230008C8
:1000B000372300080B1C00083723000837230008EB
:1000C00015050008990400083723000837230008A5
:1000D000372300089122000837230008372300083F
:1000E00003050008372300083723000837230008DA
:1000F0003723000837230008372300083723000878
:100100003723000837230008372300083723000867
:100110003723000837230008372300083723000857
:100120003723000837230008372300083723000847
:1001300000F002F800F068F80AA090E8000C824491
:100140008344AAF10107DA4501D100F05DF8AFF26E
:10015000090EBAE80F0013F0010F18BFFB1A43F0A5
:1001600001031847E0870000008800000A444FF0B0
:10017000000C10F8013B13F0070408BF10F8014B06
:100180001D1108BF10F8015B641E05D010F8016B4B
:10019000641E01F8016BF9D113F0080F1EBF10F8AF
:1001A000014BAD1C0C1B09D16D1E58BF01F801CBD2
:1001B000FAD505E014F8016B01F8016B6D1EF9D555
:1001C0009142D6D37047000000230024002500266A
:1001D000103A28BF78C1FBD8520728BF30C148BFAA
:1001E0000B607047642908F00D80752908F00A80BB
:1001F000632908F07E81732908F08381002070470D
:100200001FB51FBD10B510BD08F0EAF91146FFF784
:10021000F7FF00F0E2F808F008FA03B4FFF7F2FF86
:1002200003BC01F0DBFF0000224B19680868B0E84E
:10023000F00F80F30988BFF36F8F4FF0000080F359
:1002400011884EF00D0E704700000000064800684F
:10025000006880F3088862B661B6BFF34F8FBFF3C2
:100260006F8F00DF00BF00BF08ED00E0EFF30980F3
:10027000BFF36F8F0F4B1A6820E9F00F106008B5BD
:100280004FF0500080F31188BFF34F8FBFF36F8F93
:1002900006F05BF94FF0000080F31188BDE80840DC
:1002A00019680868B0E8F00F80F30988BFF36F8F12
:1002B000704700BFF4000020EFF305807047000096
:1002C00070471CB5044607F022FD002201210846B4
:1002D00004F0A9FE4F49086000220121084604F0FD
:1002E000A2FE4D49086000220121084604F09BFE51
:1002F0004A4908604A48022100230A02CDE9001059
:1003000048A14C4805F081FD4B4804210023CA0157
:10031000CDE9001049A14C4805F077FD4B48042178
:100320000023CA01CDE9001049A14C4805F06DFD3C
:10033000AFF27300012300220A21009048A007F0C9
:1003400086FB4B4908604B48006805F0ACFD07F0A0
:1003500001FD1CBD08B517208DF800000A208DF89E
:10036000010000208DF8020001208DF8030068468E
:1003700001F0F9FF08BD10B502F00CFA4FF480301F
:1003800002F028FA02F065FA0446012C24D100207C
:1003900002F0A5FA002002F0B4FAA00202F0A8FAD6
:1003A000022004F0BBF8102004F0CCF84FF4E01168
:1003B000200402F077FA012002F080FA00BF392011
:1003C00002F02BFA0028FAD0022002F07AFA00BFDD
:1003D00002F080FA0828FBD110BD1CB54FF4407024
:1003E00001F0BCFFFFF7C7FFFFF7B4FF01F0FFF913
:1003F00001F07AFE1F48012100238022CDE9001080
:100400001DA1AFF2411005F000FD06F03BFA0020FF
:100410001CBD0000280000202C000020300000201F
:100420001C000020526563656976655F7461736BBB
:1004300000000000FD0600082000002053656E64E7
:100440005F7461736B000000230700082400002024
:10045000436865636B5F7461736B0000DF070008BE
:100460004932635F5265616454696D6572000000D2
:10047000000000201800002073746172745F7461C2
:10048000736B0000704700BFFEE700BFFEE700BFD0
:10049000FEE700BFFEE7704710B501F0CDF910BDD3
:1004A00010B5012003F0DFFC002001F087FD10BD36
:1004B00010B5022003F0D7FC012001F07FFD10BD34
:1004C00010B5042003F0CFFC022001F077FD10BD31
:1004D00010B5082003F0C7FC032001F06FFD10BD2C
:1004E00010B5102003F0BFFC042001F067FD10BD23
:1004F00010B5062001F062FD4FF4787003F0B3FCF4
:1005000010BD10B50A2001F059FD4FF47C4003F0F6
:10051000AAFC10BD10B501F0BCFA10BD0CB500204E
:10052000019000906C48006840F480306A4908608F
:1005300000BF6948006800F4003000900198401C3A
:100540000190009818B90198B0F5A06FF1D16248F8
:10055000006800F4003010B10120009001E000209C
:1005600000900098012843D15C48006840F01000DA
:100570005A4908600846006820F0030008600846F1
:10058000006840F0020008605348406852494860E3
:100590000846406848600846406840F4806048600B
:1005A0000846406820F47C1048600846406840F4E3
:1005B000E81048600846006840F08070086000BF9E
:1005C0004548006800F000700028F9D042484068B3
:1005D00020F00300404948600846406840F00200AF
:1005E000486000BF3C48406800F00C000828F9D182
:1005F0000CBD10B5FFF792FF10BD10B5364800686E
:1006000040F0010034490860084640683449084019
:100610003149486008460068324908402E49086060
:100620000846006820F4802008600846406820F4EE
:10063000FE0048604FF41F008860FFF7DAFF4FF0BC
:1006400000602949086010BD10B50021002000227B
:10065000214B5B6803F00C0121B1042906D0082965
:1006600028D107E0214B224C236027E01F4B204C70
:10067000236023E0184B5B6803F47010164B5B6833
:1006800003F48032022303EB904022B9194B434319
:10069000174C23600DE0104B5B6803F4003323B16B
:1006A000144B4343124C236003E0104B4343104C64
:1006B000236003E00D4B0E4C236000BF00BF064BD0
:1006C0005B68C3F303130C4CE15C094B1B68CB4024
:1006D000074C236010BD00000010024000200240C3
:1006E0000000FFF8FFFFF6FE08ED00E000127A00C0
:1006F0000400002000093D000800002008B500208B
:1007000000900DE000235A1E69464148006804F03D
:10071000CBFE0446012C00D102E0C82005F0EFFD1D
:10072000F0E79AB001F00EF858E000235A1E19A91C
:100730003848006804F0B8FEC4B2012C4BD101A8BF
:1007400000F088FF9DF8640008282FD2DFE800F051
:100750002E040A10161C222860222F4905A800F03A
:10076000CDFD29E060222C4905A800F0C7FD23E05B
:100770006022294905A800F0C1FD1DE0602226493C
:1007800005A800F0BBFD17E06022234905A800F092
:10079000B5FD11E06022204905A800F0AFFD0BE097
:1007A00060221D4905A800F0A9FD05E06022002196
:1007B00005A800F0A3FD00BF00BF05A858B1502355
:1007C0009DF8642005A901A800F050FF102201A99E
:1007D000124800F093FDC82005F091FDA5E708B58B
:1007E0000020009000F0F0F811E000F0BAFC00905A
:1007F0009DF8000040B100235A1E69460548006874
:1008000004F00CFD00200090C82005F078FDECE716
:10081000300000202C0000200E020020700100207B
:1008200008B501211C2002F023F90121084602F03D
:100830001FF910208DF803000002ADF8000003201E
:100840008DF802006946FE4801F056FE10208DF832
:1008500003004002ADF8000003208DF80200694655
:10086000F74801F049FE04208DF803008020ADF820
:1008700000006946F34801F03FFE04208DF80300B4
:100880008001ADF800006946EE4801F035FE042015
:100890008DF80300C001ADF800006946E94801F099
:1008A0002BFE04208DF803004003ADF800006946DC
:1008B000E54801F021FE04208DF803000002ADF8A8
:1008C00000006946DF4801F017FE10208DF8030094
:1008D00003208DF802001020ADF800006946D848CA
:1008E00001F00AFE10208DF8030003208DF80200AD
:1008F0002020ADF800006946D14801F0FDFD102030
:100900008DF8030003208DF802004020ADF80000B0
:100910006946CB4801F0F0FD10208DF8030003205C
:100920008DF802008020ADF800006946C44801F04F
:10093000E3FD10208DF8030003208DF802004FF432
:100940008070ADF800006946BD4801F0D5FD1C205F
:10095000BE49088008BD38B501200090002408E099
:10096000BB4830F814206946022001F0FFF9601CF2
:10097000C4B20E2CF4DB72226946022001F0F6F9B3
:1009800082226946022001F0F1F992226946022092
:1009900001F0ECF90420009080226946012001F06A
:1009A000E5F94FF480726946012001F0DFF900207B
:1009B00000908022694601F0D9F94FF480726946AF
:1009C000002001F0D3F938BD10B5FFF729FFFFF77C
:1009D000C2FF10BD002105E000209E4A22F8110050
:1009E000481CC1B20E29F7DB0120704700B585B065
:1009F0000E20964908800121480202F039F84FF490
:100A0000004001F099FF91480388924A9249934827
:100A100001F020FB914801F048FB8F484C3803F06F
:100A20002BFA0020009001208DF804008DF80500BD
:100A30004FF460200290002003900E208DF81000EB
:100A4000694685484C3803F03EFA052301221146D9
:100A500081484C3803F0CFFA0523022211467E4824
:100A60004C3803F0C8FA0523032211467A484C3863
:100A700003F0C1FA05230422114677484C3803F0ED
:100A8000BAFA05231A46194673484C3803F0B3FAEC
:100A900005230622114670484C3803F0ACFA0523B2
:100AA000072211466C484C3803F0A5FA05230822AA
:100AB000114669484C3803F09EFA05230922114675
:100AC00065484C3803F097FA05230A22114662481C
:100AD0004C3803F090FA05230B2211465E484C383F
:100AE00003F089FA05230C2211465B484C3803F0C9
:100AF00082FA05230D22114657484C3803F07BFA41
:100B000005230E22114654484C3803F074FA012193
:100B100051484C3803F00EFA01214F484C3803F08D
:100B2000FEF94D484C3803F01CFA00BF4A484C38D7
:100B300003F01CFA0028F9D147484C3803F020FA9A
:100B400000BF45484C3803F020FA0028F9D10121B4
:100B500041484C3803F023FA012005B000BD30B500
:100B600002460B4600213B4830F8110002EB82049C
:100B70001C443B4D25F81400491C364830F8114000
:100B800002EB82001844401C25F81040491C3148F3
:100B900030F8110002EB82041C44324D25F8140099
:100BA000491C2C4830F8114002EB82001844401CCC
:100BB00025F81040491C274830F8110002EB820448
:100BC0001C44294D25F81400491C224830F81140D6
:100BD00002EB82001844401C25F81040491C1D48B7
:100BE00030F8110002EB82041C44204D25F814005B
:100BF000491C184830F8114002EB82001844401C90
:100C000025F81040481CC1B2124830F8110002EB20
:100C100082041C44164D25F81400481CC1B20D482E
:100C200030F8114002EB82001844401C25F81040B7
:100C3000481CC1B2074830F8110002EB820419E0E9
:100C4000000C014000100140000801403400002069
:100C50003E000020A20100204C2401400800024078
:100C60000E0200206E020020CE0200202E03002083
:100C70008E0300201C44FE4D25F81400481CC1B210
:100C8000FC4830F8114002EB82001844401C25F863
:100C90001040481CC1B2F74830F8110002EB820442
:100CA0001C44F54D25F81400481CC1B2F14830F839
:100CB000114002EB82001844401C25F8104001202E
:100CC00030BD38B504460121EC4801F0E6FC0420B3
:100CD000009061226946012001F048F851226946DE
:100CE000012001F043F841226946012001F03EF85D
:100CF000002000904122694601F038F851226946EF
:100D0000002001F033F861226946002001F02EF83E
:100D1000082C75D2DFE804F00415283B4E61758875
:100D2000002000905122694601F020F861226946B6
:100D3000002001F01BF841226946002001F016F85E
:100D400086E00120009041226946002001F00EF863
:100D5000002000905122694601F008F8612269469E
:100D6000002001F003F873E0012000905122694651
:100D7000002000F0FBFF002000904122694600F0B7
:100D8000F5FF61226946002000F0F0FF60E00120DD
:100D9000009051226946002000F0E8FF4122694698
:100DA000002000F0E3FF002000905122694600F08F
:100DB000DDFF4DE00120009061226946002000F037
:100DC000D5FF002000904122694600F0CFFF51225C
:100DD0006946002000F0CAFF3AE00120009061223D
:100DE0006946002000F0C2FF41226946002000F061
:100DF000BDFF002000905122694600F0B7FF27E0B8
:100E000024E00120009061226946002000F0AEFF3E
:100E100051226946002000F0A9FF002000904122E5
:100E2000694600F0A3FF13E00120009061226946AB
:100E3000002000F09BFF51226946002000F096FF41
:100E400041226946002000F091FF01E0002038BDFA
:100E500000BF0120FBE738B5002473E12046FFF70F
:100E600030FF0420009071226946012000F07EFFCF
:100E700081226946012000F079FFF02269460120B5
:100E800000F074FFA2226946012000F06FFF0020ED
:100E900000907122694600F069FF012000908122D4
:100EA0006946002000F062FF01200090722269462E
:100EB00000F05CFF82226946012000F057FF922279
:100EC0006946012000F052FF002000906C48028823
:100ED0006946022000F04AFF6948428869460220BC
:100EE00000F044FF664882886946022000F03EFF19
:100EF0006348C2886946022000F038FF60480289D2
:100F00006946022000F032FF5D48428969460220AE
:100F100000F02CFF5A4882896946022000F026FF23
:100F20005748C2896946022000F020FF5448028ACF
:100F30006946022000F01AFF5148428A69460220A1
:100F400000F014FF4E48828A6946022000F00EFF2E
:100F50004B48C28A6946022000F008FF4848028BCD
:100F60006946022000F002FF4548428B6946022094
:100F700000F0FCFE01200090F0226946002000F005
:100F8000F5FE00200090A222694600F0EFFEFFF778
:100F90002DFD00BF022003F07FFA0128FAD10021C5
:100FA000384802F0BCFF0021374803F05AFA00210C
:100FB0002046FFF7D4FDFFF70DFD00200090F02242
:100FC000694600F0D3FE01200090A222694600206D
:100FD00000F0CCFEFFF70AFD00BF022003F05CFA30
:100FE0000128FAD10021274802F099FF0021264864
:100FF00003F037FA02212046FFF7B1FDFFF7EAFCC4
:1010000001200090F0226946002000F0AFFE002091
:101010000090A222694600F0A9FE712269460020D4
:1010200000F0A4FE002000908122694600F09EFEA0
:10103000FFF7DCFC00BF022003F02EFA0128FAD1F2
:101040000021104802F06BFF00210F4803F009FA5D
:10105000072C71D2DFE804F004212E3B48556200D2
:10106000012000EB4400034931F810100EE00000AD
:10107000EE030020A20100204E04002000023000F8
:101080003E000020002401400800024004EB8400E0
:10109000001D7D4A22F810104FE0012000EB4400B3
:1010A0007A4931F8101004EB8400001D784A22F8C8
:1010B000101042E0012000EB4400744931F8101098
:1010C00004EB8400001D734A22F8101035E0012063
:1010D00000EB44006D4931F8101004EB8400001D52
:1010E0006D4A22F8101028E0012000EB4400674907
:1010F00031F8101004EB8400001D684A22F810102B
:101100001BE0012000EB4400604931F8101004EBB3
:101110008400001D624A22F810100EE0012000EB4E
:1011200044005A4931F8101004EB8400001D5D4A58
:1011300022F8101001E0FFE700BF00BFFFF74AFCF4
:10114000601CC4B2082CFFF689AE012038BD10B572
:10115000FFF781FE0446012C01D0204610BD01207E
:10116000FCE710B5FFF7F3FF0446204610BD08B5B5
:101170000120009061226946022000F0F7FD042062
:10118000009060226946012000F0F0FD702269465F
:10119000012000F0EBFD012000907022694600F074
:1011A000E5FD5520009060226946032000F0DEFD39
:1011B000BDF8000028B960226946012000F0D6FD84
:1011C0000FE0BDF80000012804D16022694600F05C
:1011D000CDFD06E00020009070226946012000F05D
:1011E000C5FD08BD08B504200090D1226946012044
:1011F00000F0BCFDC1226946012000F0B7FD0020CF
:101200000090C122694600F0B1FD01200090D1227A
:101210006946002000F0AAFD08BD08B50420009032
:10122000D1226946012000F0A1FDC12269460120BA
:1012300000F09CFD01200090C1226946002000F0D2
:1012400095FD00200090D122694600F08FFD08BD79
:1012500008B504200090D1226946012000F086FDE7
:10126000C1226946012000F081FD00200090C122CA
:10127000694600F07BFD00200090D122694600F015
:1012800075FD08BD704700000E020020A20100207D
:101290006E020020CE0200202E0300208E030020CC
:1012A000EE0300204E040020034600201870587002
:1012B0009A70DA705960012070470346022905D1FF
:1012C000002018705870D878987000E000BF00BFF8
:1012D00001207047034621B1012905D0032909D116
:1012E00005E01878107006E05878107003E09878E0
:1012F000107000E000BF00BF0120704705E011F84A
:10130000013B00F8013B531EDAB2002AF7DC7047BC
:101310002DE9F047044689461746387810B9002071
:10132000BDE8F08794F803A0A5783878A84203DDDB
:101330003D7015B90020F3E73D782678AE4217DA04
:10134000A81B00F0FF08B9F1000F0DD0AAEB0802AE
:101350006168881842464946FFF7D0FF09EB08014B
:1013600032466068FFF7CAFFAAEB0800C6B20BE07E
:10137000B9F1000F06D0721B616888182A464946E9
:10138000FFF7BCFF701BC6B22670A078401BA07090
:101390000120C5E72DE9F04704468946174638780D
:1013A00010B90020BDE8F08794F803A0A57838783C
:1013B000A84203DD3D7015B90020F3E73D7866785B
:1013C0007019504518DDAAEB060000F0FF08B9F1CE
:1013D000000F0DD06168881942464946FFF78EFF1D
:1013E000A5EB0803DAB209EB08016068FFF786FF96
:1013F000A5EB0800C6B20DE0B9F1000F05D0616899
:1014000088192A464946FFF779FF7019C6B2564532
:1014100000D100266670A078401BA0700120C1E7B3
:101420002DE9F04F04460F46904698F8000010B999
:101430000020BDE8F08F94F80390A078A9EB00009D
:1014400000F0FF0B98F80000584508DD88F800B060
:10145000BBF1000F01D10020EBE75E4601E098F8F8
:1014600000602578A819484516DDA9EB050000F0B5
:10147000FF0A6FB16068411952463846FFF73EFFD8
:10148000A6EB0A03DAB207EB0A006168FFF736FF42
:10149000A6EB0A00C5B20BE02FB1606841193246D5
:1014A0003846FFF72BFFA819C5B24D4500D10025DE
:1014B0002570A0783044A0700120BAE72DE9F04FE4
:1014C00004460F46904698F8000010B90020BDE889
:1014D000F08F94F803B0A078ABEB000000F0FF0AA7
:1014E00098F80000504508DD88F800A0BAF1000F18
:1014F00001D10020EBE7554601E098F800506678EE
:10150000AE4215DAA81B00F0FF096FB1ABEB090280
:10151000606881184A463846FFF7F0FE07EB09007D
:1015200032466168FFF7EAFEABEB0900C6B209E09C
:1015300037B1721B606881182A463846FFF7DEFE15
:10154000701BC6B26670A0782844A0700120BEE768
:101550002DE9F04F04460D461646307810B90020AC
:10156000BDE8F08F94F803A0A078AAEB000000F08B
:10157000FF083078404508DD86F80080B8F1000F9C
:1015800001D10020ECE7C14601E096F800902778F1
:1015900007EB0900504513DDAAEB070000F0FF0B35
:1015A000ADB16068C1195A462846FFF7A7FEA9EBFE
:1015B0000B03DAB205EB0B006168FFF79FFE06E054
:1015C0002DB16068C1194A462846FFF797FE0120F1
:1015D000C6E72DE9F04F04460E461746387810B995
:1015E0000020BDE8F08F94F803B0A078ABEB0000CA
:1015F00000F0FF093878484508DD87F80090B9F118
:10160000000F01D10020ECE74D4600E03D7894F852
:101610000180A84513DAA5EB080000F0FF0ABEB16F
:10162000ABEB0A026068811852463046FFF766FE4F
:1016300006EB0A0042466168FFF760FE08E03EB133
:10164000A8EB0502606881182A463046FFF756FE6F
:101650000120C6E7FF210173AA214170002181709A
:1016600041718171C1710171417370472DE9F0477A
:1016700004460F46904699464E46002504E0785DA4
:10168000A1684855681CC5B2B542F8DB3146A06870
:1016900000F058FA2073AA20607084F80280B01C11
:1016A00060715220A0711420E071274800788030CA
:1016B0002071162060730120BDE8F08700B593B05B
:1016C00014210CA806F06AFE20A003C8CDE90A0187
:1016D00020A103C9CDE9080120A103C9CDE9060174
:1016E00020A103C9CDE904010020019002900390DC
:1016F00011220CA911A8FFF7D7FD052000906A461A
:101700000AA911A8FFF704FE052000906A4608A95F
:1017100011A8FFF7FDFD052000906A4606A911A853
:10172000FFF7F6FD052000906A4604A911A8FFF70F
:10173000EFFD0A2000906A4601A911A8FFF770FE8C
:1017400013B000BD704700005E00002001020304DA
:1017500005000000060708090A0000000B0C0D0E2A
:101760000F000000101112131400000000B585B026
:101770000020ADF808004BF6FF70ADF80A005020CD
:10178000ADF80C004FF48060ADF80E000001ADF82C
:101790001000CC48019001A9CB4803F0B6F9012113
:1017A000C94803F030FA01225102C74803F096FA03
:1017B00001221102C44803F091FA21208DF80000A3
:1017C00000208DF8010007208DF8020001208DF81F
:1017D0000300684600F0C7FD22208DF800000620B7
:1017E0008DF80200684600F0BEFD05B000BD08B5EA
:1017F0000121082001F03CF90121880501F045F99B
:101800000121084601F034F94FF44060ADF80000C2
:101810001C208DF8030003208DF802006946AB48B8
:1018200000F06AFE0020AA490870AA490870AA4977
:101830000870FFF79BFF08BD1CB500240020009036
:10184000A64803F0FAFAA64A811A904225D005DC90
:10185000102872D0B0F1021F70D11DE0A1F58021D7
:10186000403969B10429F7D19E4802780078401CBC
:101870009C4B18709C48815C984803F038FA06E14C
:10188000984802780078401C964B18709648815C06
:10189000924803F02CFAFAE0F9E0002000908F481B
:1018A00003F027FA04468A48007858B9682C05D115
:1018B00087480078401C8649087003E0012182486F
:1018C00003F0A1F98248007809286CD2DFE800F023
:1018D0006B05171D23373F475900682C05D17C48FD
:1018E0000078401C7A49087008E00121764803F02E
:1018F0008AF90020764908707C490870B8E074487D
:101900000078401C72490870B2E071480078401CB1
:101910006F490870ACE0682C05D16D480078401C18
:101920006B49087008E00121674803F06CF900205A
:10193000674908706D4908709AE09BE0A6E06C4822
:10194000047063480078401C6149087090E0674863
:1019500004705F480078401C5D49087088E0522C94
:1019600005D15B480078401C5949087008E0012106
:10197000554803F048F90020554908705B49087044
:1019800076E0142C05D152480078401C504908706C
:1019900008E001214C4803F036F900204C4908705A
:1019A0005249087064E04A480078801D4F49097820
:1019B00088422BD147480078801C4C4909788842DE
:1019C00009D00121404803F01EF900204049087069
:1019D000464908704BE03F480178464800F0B2F8AD
:1019E0003D49087008460078A04205D13848007883
:1019F000401C374908703AE00121334803F003F9ED
:101A00000020334908703949087030E030480078C8
:101A1000C01D36490978884220D1162C08D10120F2
:101A20000090002301AA69463348006803F060FE75
:101A30000121254803F0E7F80020274908702449D0
:101A400008702A490870019888B14FF080502B49DE
:101A50000860BFF34F8FBFF36F8F08E025481D4923
:101A6000097844541B480078401C1A49087000BF8C
:101A700000BF0CE00121144803F0C5F8002016490E
:101A80000870134908701949087000E000BF00BFD2
:101A90001CBD10B51A49114803F0FFF930B11849BF
:101AA0000E4803F015FA00200E4908704FF001218E
:101AB0000A4803F0F2F920B14FF00121074803F082
:101AC00007FA10BD801A060000580040000C0140C3
:101AD0005F000020620000206300002000540040EE
:101AE0004000020061000020700100206000002022
:101AF0005E000020660400203000002004ED00E0BD
:101B00000004000130B50246002005E012F8014B48
:101B100084EA00031F4CE05C0C1EA1F10105A9B290
:101B2000F4D130BD30B5034605E013F8010B80EA6F
:101B300002041848025D081EA1F10105A9B2F4D102
:101B4000104630BD30B502460B464FF6FF7008E038
:101B500012F8014B4440E1B200120F4C34F811402E
:101B600060401C1EA3F10105ABB2F1D130BD30B510
:101B7000034608E013F8010B5040C4B212120648A5
:101B800030F814004240081EA1F10105A9B2F1D1BC
:101B9000104630BD44860008448700087FB50546DE
:101BA0000C460121022000F070FFADF80850ADF89E
:101BB00004400020ADF80A00ADF8060001A91D4858
:101BC00001F092FA012211461A4801F004FE1D208C
:101BD0008DF8000001208DF8010000208DF8020032
:101BE00001208DF80300684600F0BDFB012111487B
:101BF00001F0D6FD7FBD10B500210F4A1160516084
:101C000047213120FFF7CAFF10BD10B50121094857
:101C100002F08FF8012808D1074802684068521C7A
:101C200040F1000004490A6048600121014802F0C7
:101C300091F810BD000400407000002010B503466C
:101C4000042B06DA102904DAF94C106844F8210054
:101C500001E0002010BD0120FCE77FB506460C46E0
:101C600015460121084600F003FF052C04DAF1486F
:101C7000005D8DF80C0008E00A2C03DA17208DF8BF
:101C80000C0002E028208DF80C0006208DF80D00D5
:101C900001208DF80F0003A800F065FB04208DF8EB
:101CA0000300E54830F81400ADF80000E34951F8AE
:101CB0002600694600F020FCE14A115DE14A905D92
:101CC00000F030FDDC4830F81400019000208DF861
:101CD0000800012D03D108208DF8090008E0022D2D
:101CE00003D10C208DF8090002E010208DF80900C6
:101CF0001DB900208DF80A0002E001208DF80A00CD
:101D000001A802F039F8012004B070BD10B50346F7
:101D1000CA4850F82300806884B2C74830F81100E0
:101D200004401480012010BD10B50346108801281E
:101D300007D1C14830F81100C04C54F8234060610D
:101D400001E0002010BD0120FCE710B5034610881B
:101D5000012807D1B84830F81100B84C54F8234096
:101D6000206101E0002010BD0120FCE72DE9FC47C7
:101D700007460E46904608F0F00408F00F052411BF
:101D80000F2C01DC032D02DD0020BDE8FC87B946E5
:101D9000AD4951F82500012100F06AFE4F46B9F126
:101DA000060F73D2DFE809F0031369B3B9CC012041
:101DB0000190308828B101AA21462846FFF7C5FFC7
:101DC000E3E701AA21462846FFF7AEFFDDE73088AA
:101DD000042806D0052816D0062826D0072848D182
:101DE00035E010208DF80300934830F81400ADF86A
:101DF000000003208DF80200904951F82500694643
:101E000000F07AFB37E014208DF803008A4830F8A0
:101E10001400ADF8000003208DF80200874951F846
:101E20002500694600F068FB25E018208DF80300C6
:101E3000814830F81400ADF8000003208DF802004E
:101E40007E4951F82500694600F056FB13E01C203E
:101E50008DF80300784830F81400ADF80000032036
:101E60008DF80200754951F82500694600F044FBE1
:101E700001E0002089E700BF6AE0308838B101281E
:101E800014D0022821D003283DD12DE05EE00020AF
:101E90008DF80300684830F81400ADF80000674979
:101EA00051F82500694600F027FB2EE004208DF84C
:101EB0000300614830F81400ADF800005F4951F8A4
:101EC0002500694600F018FB1FE048208DF803004C
:101ED000594830F81400ADF80000584951F8250071
:101EE000694600F009FB10E028208DF803005248F5
:101EF00030F81400ADF80000504951F8250069464B
:101F000000F0FAFA01E000203FE700BF20E032468F
:101F100021462846FFF7FAFE37E7308838B14B49AB
:101F20000D55328821462846FFF797FE07E000202E
:101F300046490855328821462846FFF78EFE07E0BD
:101F4000324621462846FFF779FE01E000201CE7D3
:101F500000BF012019E710B503460C46374850F87A
:101F60002300806881B21180012010BD10B50346A6
:101F7000108801280BD1314850F8230000694FF632
:101F8000FF7420432D4C54F82340206101E00020D1
:101F900010BD0120FCE710B503461088012809D1C7
:101FA000264850F8230040690020244C54F8234070
:101FB000606101E0002010BD0120FCE710B504467F
:101FC000234800682149095D8843214908600121AF
:101FD00001FA04F001F036FF18B1154951F8240058
:101FE00080471B4800681949095D08431849086083
:101FF000012010BD08B504200090A02269460120F0
:10200000FFF7B4FE01200090A02269460020FFF7F0
:10201000ADFE04200090C12269460120FFF7A6FE14
:1020200000200090C1226946FFF7A0FE08BD000015
:102030008404002078000020B4000020A4000020C8
:10204000810000207D00002094000020C4040020B6
:10205000000401402DE9F04107460D4616461C4696
:102060000121084600F0F7FC384602F02DF9174828
:1020700004801748056046600020154988600846BE
:10208000C4600020086180204861400088618000B1
:10209000C861002008624FF48050486200208862C6
:1020A000384602F0B3F9BDE8F08110B504460021CE
:1020B000204602F0D6F905480188064802F0E6F904
:1020C0000121204602F0CDF910BD000034000020AF
:1020D000D40400204400024010B504F094FE01280E
:1020E00001D005F04FFE10BD10B5042000F085F9B9
:1020F000364800683649B0FBF1F03649087033487D
:1021000000683349B0FBF1F44FF47A704443012086
:10211000314908804FF0E020006940F002004FF0A4
:10212000E021086108464461006940F0010008614F
:1021300010BD70B5034600224FF0E0267569254EAC
:10214000367803FB06F44FF0E026B16910E04FF05B
:10215000E026B06988420BD0884202D20E1A32447F
:1021600002E02E1A0E4432440146A24200D300E09F
:10217000EDE700BF70BD70B5044604F044FE0128D1
:1021800010D015480088844206D313480088B4FB59
:10219000F0F5284604F0B3F80F480088B4FBF0F1DE
:1021A00000FB11444FF47A7104FB01F0FFF7C1FF0B
:1021B00070BD30B50446002504E04FF47A70FFF797
:1021C000B8FF6D1CA542F8D330BD0000040000200C
:1021D00040420F00D4000020D600002000BF70470E
:1021E00000BF4A4A128802F04002002AF9D0C2B267
:1021F000464B1B1D1A80704710B586B0044601215E
:1022000044F2040000F034FC4FF40070ADF8140008
:1022100003208DF8160018208DF8170005A93C48FA
:1022200000F06AF94FF48060ADF8140004208DF8D6
:10223000170005A9364800F05FF925208DF8000049
:1022400003208DF801008DF8020001208DF80300B5
:10225000684600F088F801940020ADF80800ADF859
:102260000A00ADF80C00ADF810000C20ADF80E001F
:1022700001A9264800F0A3FC012240F22551234881
:1022800000F035FD0121214800F025FD06B010BD0C
:1022900010B540F225511D4800F00EFE10B31B484A
:1022A00000F08AFDC4B21B48008800F40040C8B9A1
:1022B0001848008800F4804060B10A2C03D0002048
:1022C0001449088020E01348008840F40040114978
:1022D000088019E00D2C06D10E48008840F480409B
:1022E0000C49088010E00B480088C0F30D000A4933
:1022F0000C5408480088401C06490880084600889D
:10230000C72801DD0020088010BD00000038014012
:1023100000080140DC00002000050020094880473B
:1023200009480047FEE7FEE7FEE7FEE7FEE7FEE7B7
:10233000FEE7FEE7FEE7FEE704480549054A064BCF
:1023400070470000FB0500083101000878590020A3
:10235000785F0020785B0020785B002031490143E2
:10236000314A1160704770B5002100230F22C478F4
:1023700004B32D4C246804F4E064C4F5E064210A3D
:10238000C1F10403CA40447804FA03F1847814408C
:1023900021430901254C0678A155047804F01F0556
:1023A0000124AC4005786D11AD0005F1E025C5F8BC
:1023B000004109E0047804F01F050124AC401C4DE5
:1023C0000678761145F8264070BD1A4A0A40024345
:1023D000154B1B1F1A60704739B1134A121D126842
:1023E0000243114B1B1D1A6006E00F4A121D1268B2
:1023F00082430D4B1B1D1A607047042808D14FF013
:10240000E021096941F004014FF0E022116107E089
:102410004FF0E021096921F004014FF0E022116141
:10242000704700000000FA050CED00E000E400E059
:1024300080E100E080FFFF1F10B50446CC488442D5
:1024400008D10121042000F02DFB0021042000F020
:1024500029FB46E0C748844208D10121082000F04A
:1024600021FB0021082000F01DFB3AE0C248844215
:1024700008D10121102000F015FB0021102000F0F0
:1024800011FB2EE0BD48844208D10121202000F03C
:1024900009FB0021202000F005FB22E0B84884421F
:1024A00008D10121402000F0FDFA0021402000F079
:1024B000F9FA16E0B348844208D10121802000F0E7
:1024C000F1FA0021802000F0EDFA0AE0AE488442E3
:1024D00007D10121801500F0E5FA0021A01500F0D8
:1024E000E1FA10BD10B50121084600F0DBFA002129
:1024F000012000F0D7FA10BD2DE9F0410246002579
:102500000026002000230024002791F803C00CF0CF
:102510000F0591F803C00CF0100CBCF1000F03D0B4
:1025200091F802C04CEA050591F800C0BCF1000F1B
:1025300031D0146800202BE04FF0010C0CFA00F3AE
:10254000B1F800C00CEA03069E4220D183004FF090
:102550000F0C0CFA03F7BC4305FA03FC4CEA040425
:1025600091F803C0BCF1280F06D14FF0010C0CFA12
:1025700000FCC2F814C00AE091F803C0BCF1480F97
:1025800005D14FF0010C0CFA00FCC2F810C0401C41
:102590000828D1D31460B1F800C0BCF1FF0F34DDBE
:1025A000546800202EE000F1080C4FF0010808FAF2
:1025B0000CF3B1F800C00CEA03069E4221D183005F
:1025C0004FF00F0C0CFA03F7BC4305FA03FC4CEA7E
:1025D000040491F803C0BCF1280F05D100F1080CE8
:1025E00008FA0CF8C2F8148091F803C0BCF1480F47
:1025F00007D100F1080C4FF0010808FA0CF8C2F8F6
:102600001080401C0828CED35460BDE8F0814FF6FE
:10261000FF710180022181700421C1707047024660
:10262000002093680B400BB1012000E000207047B0
:102630000146886880B2704702460020D3680B408C
:102640000BB1012000E0002070470146C86880B24D
:10265000704701617047416170470AB1016100E054
:1026600041617047C16070474FF480320A43826114
:102670008161826182698269704702460020434B12
:1026800018684FF68073184040EA021008433F4B29
:10269000186070473E49C8617047F0B50A4600238C
:1026A00000240021002500F00046B6F1004F02D1C1
:1026B000364EF16901E0354E7168C0F3034583B2CF
:1026C00000F44016B6F5401F08D121F070612F4E7E
:1026D000766826F070662D4F7E6012E000F480165A
:1026E000B6F5801F06D1032606FA05F4A14341F092
:1026F000706106E0460D360103FA06F6B14341F07B
:10270000706122B1460D360103FA06F6314300F03E
:102710000046B6F1004F02D11C4EF16101E01B4EA4
:102720007160F0BD30B500228B071C0F0F2303FA38
:1027300004F2164B08338C1053F824309343134C97
:1027400008348D1044F8253023468C1053F824307B
:102750008C07240F00FA04F423430C4C08348D102A
:1027600044F8253030BD0A49DC310860704700006C
:1027700000080140000C014000100140001401401D
:1027800000180140001C01400020014000000140F1
:1027900000002042DF48006840F00100DD49086089
:1027A00008464068DC490840DA4948600846006845
:1027B000DA490840D74908600846006820F48020BC
:1027C00008600846406820F4FE0048604FF41F008F
:1027D00088607047CF49096821F48031CD4A116083
:1027E0001146096821F480211160B0F5803F03D0C3
:1027F000B0F5802F0ED106E0C649096841F480315A
:10280000C44A116007E0C349096841F4A021C14AE4
:10281000116000E000BF00BF704710B50146002204
:10282000002300204A11012A02D1BA4C236806E095
:10283000022A02D1B74C236A01E0B64C636A01F068
:102840001F02012494401C400CB1012000E0002034
:1028500010BD38B5002000900024002500BF3120B5
:10286000FFF7DBFF05460098401C00900098B0F58C
:10287000A06F01D0002DF2D03120FFF7CEFF08B1BC
:10288000012400E00024204638BD01460020A14A72
:10289000106820F0F80040EAC10010607047A049BD
:1028A00008607047024600209A4B586820F47C105C
:1028B00042EA01031843974B5860704798490866ED
:1028C000704701460020934A506820F003000843F7
:1028D000506070478F48406800F00C007047014618
:1028E00000208C4A506820F0F00008435060704788
:1028F00001460020874A506820F4E0600843506099
:10290000704701460020834A506820F4605040EA36
:10291000C1005060704729B17E4A527A02437D4B14
:102920005A7204E07B4A527A82437A4B5A72704759
:102930007B49D8310860704701460020754A5068CD
:1029400020F440400843506070470021714A203213
:102950001170704A82F82010012802D004280AD190
:1029600004E001216B4A2032117005E00521694A1B
:102970002032117000E000BF00BF70476949086055
:1029800070476449096A0143624A116270476549A8
:1029900044390860704730B500210022002400232C
:1029A0005C4D6D6805F00C0121B1042905D00829A2
:1029B00023D105E05C4D056022E05B4D05601FE022
:1029C000544D6D6805F47012524D6D6805F48034F5
:1029D000022505EB92421CB9544D554305600BE0AE
:1029E0004C4D6D6805F400351DB1504D55430560E3
:1029F00002E04D4D5543056002E04B4D056000BFC0
:102A000000BF444D6D6805F0F0010909484D6B5C4D
:102A10000568DD4045603F4D6D6805F4E061090AD9
:102A2000434D6B5C4568DD4085603A4D6D6805F44B
:102A30006051C90A3E4D6B5C4568DD40C560354D4F
:102A40006D6805F44041890B3A4D6B5CC568B5FB78
:102A5000F3F5056130BD29B12E4A526902432D4B71
:102A60005A6104E02B4A526982432A4B5A617047EB
:102A700029B1284A92690243264B9A6104E0254A0B
:102A800092698243234B9A61704729B1214AD269E6
:102A90000243204BDA6104E01E4AD26982431D4B97
:102AA000DA61704729B11B4AD2680243194BDA60D8
:102AB00004E0184AD2688243164BDA60704729B1A5
:102AC000144A12690243134B1A6104E0114A126955
:102AD0008243104B1A6170471249403908607047B1
:102AE0000F49C86470470B49C87170470948406A6C
:102AF00040F0807007494862704701460020054A4F
:102B000092680A400AB1012000E0002070470149A4
:102B100088727047001002400000FFF8FFFFF6FEC9
:102B2000000042428004424200127A0000093D0047
:102B3000DE000020EE00002010B50446FB48844271
:102B400009D101218803FFF7ADFF00214FF4804038
:102B5000FFF7A8FF32E0F648844209D1012148047A
:102B6000FFF7ADFF00214FF40030FFF7A8FF25E08D
:102B7000F048844209D101218804FFF7A0FF002119
:102B80004FF48020FFF79BFF18E0EB48844209D107
:102B90000121C804FFF793FF00214FF40020FFF745
:102BA0008EFF0BE0E548844208D101210805FFF7BC
:102BB00086FF00214FF48010FFF781FF10BD2DE943
:102BC000F04786B005460E460024A24600BFA14647
:102BD0000027B08900B100BF2F462C8A4CF6FF7049
:102BE0000440F08804432C82AC894EF6F310044074
:102BF000B08831890843718908430443AC81AC8AA9
:102C00004FF6FF400440B0890443AC8201A8FFF7AF
:102C1000C2FEC648874202D1DDF810A001E0DDF80F
:102C20000CA0A88900F4004040B10AEBCA0000EBF8
:102C30000A1031684900B0FBF1F807E00AEBCA005E
:102C400000EB0A1031688900B0FBF1F86420B8FB92
:102C5000F0F004012009642101FB1089A88900F427
:102C6000004040B1322000EBC900B0FBF1F000F0B1
:102C70000700044308E0322000EB09106421B0FB98
:102C8000F1F000F00F0004432C8106B0BDE8F0879E
:102C90004FF41651016000218180C18001810C2117
:102CA000418100218181704710B502460020108AC1
:102CB0004FF2FF0318400B884C8823438C88234332
:102CC000CC8823431843108210BD0021018041802D
:102CD0008180C180704721B1828942F40052828193
:102CE00004E082894DF6FF731A4082817047F0B587
:102CF0000346002400260025002040F66A17B9424A
:102D000000D100BF1846C1F3421401F01F0601278D
:102D100007FA06F5012C01D10C3004E0022C01D198
:102D2000103000E014301AB107682F43076002E04A
:102D30000768AF430760F0BD1AB1838A0B438382F3
:102D400002E0838A8B4383827047028A4FF6F073D6
:102D50001A400282028A0A430282704782894FF235
:102D6000FF731A40828182890A438281704721B1B0
:102D7000828942F00202828104E082894FF6FD736B
:102D80001A4082817047028A4FF6DF731A4002822E
:102D9000028A0A430282704721B1028A42F48042C9
:102DA000028204E0028A4BF6FF731A4002827047E7
:102DB000C1F308028280704701468888C0F308008A
:102DC0007047818941F0010181817047028BD2B245
:102DD0000283028B42EA012202837047028B02F4D3
:102DE0007F420283028B0A430283704721B1828AA9
:102DF00042F02002828204E0828A4FF6DF731A409A
:102E00008282704721B1828A42F01002828204E0FD
:102E1000828A4FF6EF731A408282704721B1828A0C
:102E200042F00802828204E0828A4FF6F7731A4069
:102E30008282704721B1828942F40042828103E09C
:102E40008289C2F30E028281704721B1828A42F4E4
:102E50000062828204E0828A4FF2FF731A4082820B
:102E60007047828A4FF6FB731A408282828A0A4335
:102E70008282704721B1828A42F00202828204E09B
:102E8000828A4FF6FD731A40828270470246002004
:102E9000B1F5007F00D100BF13880B400BB10120BA
:102EA00000E00020704701F40072B2F5007F00D10D
:102EB00000BFCA430280704770B502460024002359
:102EC0000025002040F66A16B14200D100BFC1F3D0
:102ED000421501F01F03012606FA03F3012D02D16A
:102EE0009689334006E0022D02D1168A334001E074
:102EF000968A33400C12012606FA04F416883440F0
:102F000013B10CB1012000E0002070BD10B500220B
:102F1000002340F66A14A14200D100BF0A12012426
:102F20009440A3B2DC43048010BD0000003801408F
:102F30000044004000480040004C00400050004069
:102F400010B50446FE48844208D10121C014FFF7A1
:102F5000A9FD0021E014FFF7A5FDC4E0B4F1804F06
:102F600008D101210846FFF7AAFD00210120FFF743
:102F7000A6FDB8E0F348844208D101210220FFF702
:102F80009EFD00210220FFF79AFDACE0EE4884424E
:102F900008D101210420FFF792FD00210420FFF752
:102FA0008EFDA0E0E948844208D101210820FFF706
:102FB00086FD00210820FFF782FD94E0E44884426A
:102FC00008D101211020FFF77AFD00211020FFF722
:102FD00076FD88E0DF48844208D101212020FFF7F8
:102FE0006EFD00212020FFF76AFD7CE0DA48844274
:102FF00008D101214014FFF755FD00216014FFF7AF
:1030000051FD70E0D548844209D10121C804FFF781
:1030100049FD00214FF40020FFF744FD63E0D04854
:10302000844209D101210805FFF73CFD00214FF43E
:103030008010FFF737FD56E0CA48844209D10121CC
:103040004805FFF72FFD00214FF40010FFF72AFD80
:1030500049E0C548844208D101214020FFF72FFDF7
:1030600000214020FFF72BFD3DE0C048844208D1FD
:1030700001218020FFF723FD00218020FFF71FFDA5
:1030800031E0BB48844208D101218015FFF717FDCC
:103090000021A015FFF713FD25E0B648844209D1B1
:1030A00001210804FFF7FEFC00214FF48030FFF7F8
:1030B000F9FC18E0B048844209D101214804FFF727
:1030C000F1FC00214FF40030FFF7ECFC0BE0AB48C3
:1030D000844208D101218804FFF7E4FC00214FF469
:1030E0008020FFF7DFFC10BD00220288944B98423D
:1030F0000ED0994B98420BD0B0F1804F08D0914B35
:10310000984205D0904B984202D0904B984204D1FF
:103110004FF68F731A404B881A438D4B984207D055
:103120008C4B984204D04FF6FF431A40CB881A4389
:1031300002808B8883850B880385814B98420BD056
:10314000854B984208D08B4B984205D08A4B9842C9
:1031500002D08A4B984201D10B7A038601238382E5
:10316000704770B5002400220023058C4FF6FE76D0
:1031700035400584028C8388048B4FF68F752C4074
:10318000B51E2C400D882C43751E2A400D892A43FC
:103190004D882A436A4DA8420BD06F4DA84208D0F3
:1031A000744DA84205D0744DA84202D0734DA84278
:1031B00013D14FF6F7752A404D892A434FF6FB7518
:1031C0002A408D882A434FF6FF652B404FF6FF5566
:1031D0002B408D892B43CD892B4383800483CD885D
:1031E0008586028470BD70B5002400220023058C02
:1031F0004FF6EF7635400584028C8388048B48F6C1
:10320000FF752C404FF6FF452C400D884FF6FF769A
:1032100006EA05252C434FF6DF752A400D8906EA9C
:1032200005152A434D8806EA05152A43444DA84250
:1032300002D0494DA8421DD14FF67F752A404D89D5
:103240004FF6FF7606EA05152A434FF6BF752A406A
:103250008D8806EA05152A434FF6FF352B404FF2BD
:10326000FF752B408D8906EA85052B43CD8906EA3B
:1032700085052B4383800483CD880587028470BD38
:1032800070B5002400220023058C4FF6FF66354000
:103290000584028C8388848B4FF68F752C404FF603
:1032A000FC752C400D882C434FF6FF552A400D89A4
:1032B0004FF6FF7606EA05252A434D8806EA0525DE
:1032C0002A431F4DA84202D0234DA8421DD14FF2E0
:1032D000FF752A404D894FF6FF7606EA05252A43F9
:1032E0004FF6FF352A408D8806EA05252A434EF61B
:1032F000FF752B404DF6FF752B408D8906EA0515AD
:103300002B43CD8906EA05152B4383808483CD8822
:103310008587028470BD70B5002200230024058CCF
:103320004EF6FF7635400584038C8488828B48F600
:10333000FF752A404FF6FF452A400D8820E0000027
:10334000002C01400004004000080040000C004038
:10335000001000400014004000340140004C0140C7
:10336000005001400054014000180040001C004083
:10337000002000400040014000440140004801405E
:103380004FF6FF7606EA05252A434DF6FF752B40DA
:103390000D8906EA05352B434D8806EA05352B4392
:1033A000FA4DA84202D0FA4DA84208D14BF6FF755B
:1033B0002C408D894FF6FF7606EA85152C438480D4
:1033C0008283CD88A0F84050038470BD828B4FF279
:1033D000FF331A408283828B4FF6FF7303EA012387
:1033E0001A4382837047F0B50C461546002200212F
:1033F0000026078C4EF6FF7C07EA0C070784828BB9
:10340000018C4FF6FF7707EA043640F6FF473A4053
:103410004FF6FF7707EA05273A434FF6FF7707EAAB
:1034200003373A43D94FB8420ED0D94FB8420BD0E8
:10343000B0F1804F08D0D74FB84205D0D64FB84230
:1034400002D0D64FB84206D14DF6FF77394046F448
:103450008057394305E047F6FF57394044F4805719
:10346000394382830184F0BD828B4FF6F3731A4097
:103470008283828B0A4382837047F0B50C461546DF
:10348000002200210026078C4FF6FF6C07EA0C078C
:103490000784828B018C4FF6FF7707EA04264FF6EC
:1034A0000C773A404FF6FF7707EA03172F433A436A
:1034B000B64FB8420ED0B64FB8420BD0B0F1804FE5
:1034C00008D0B44FB84205D0B34FB84202D0B34F82
:1034D000B84206D14FF6FF57394046F4807739435A
:1034E00005E04FF2FF57394044F480773943828337
:1034F0000184F0BD028B4FF2FF331A400283028B2E
:103500004FF6FF7303EA01231A4302837047F0B5B5
:103510000C461546002200210026078C4FF6EF7C52
:1035200007EA0C070784028B018C4FF6FF7707EA46
:10353000041640F6FF473A404FF6FF7707EA033795
:103540003A434FF6FF7707EA05273A438F4FB842D1
:103550000ED08F4FB8420BD0B0F1804F08D08D4FB6
:10356000B84205D08C4FB84202D08C4FB84206D139
:103570004FF6DF77394046F01007394305E04FF644
:103580005F77394044F01007394302830184F0BD6E
:10359000028B4FF6F3731A400283028B0A430283B5
:1035A0007047F0B50C46154600220021068C4FF6F8
:1035B000FE773E400684028B018C4FF60C7632403B
:1035C0007E1C06EA03162E433243704EB0420ED0E4
:1035D0006F4EB0420BD0B0F1804F08D06D4EB0426C
:1035E00005D06D4EB04202D06C4EB04206D14FF6BF
:1035F000FD76314044F00106314305E04FF6F576A3
:10360000314044F00106314302830184F0BD70B5BE
:1036100005460C465D4885420ED05D4885420BD07C
:10362000B5F1804F08D05B48854205D05A488542A5
:1036300002D05A48854200D100E000BF208850B92E
:103640002389A28861882846FFF7ABFFE1882846D6
:10365000FFF79EFF25E0208804280AD12389A2884D
:1036600061882846FFF753FFE1882846FFF742FFAD
:1036700017E0208808280AD12389A2886188284673
:10368000FFF7FBFEE1882846FFF7EEFE09E02389FD
:10369000A28861882846FFF7A6FEE1882846FFF742
:1036A00095FE70BD2DE9F04105460C460026012728
:1036B000608808B9022600E00026A088012801D110
:1036C000022700E001272088A0B92389A288618809
:1036D0002846FFF766FFE1882846FFF759FF238950
:1036E0003A4631462846FFF712FFE1882846FFF7A1
:1036F00001FF13E02389A28861882846FFF707FFAE
:10370000E1882846FFF7F6FE23893A4631462846E7
:10371000FFF747FFE1882846FFF73AFFBDE8F08151
:103720000A884B881A438B881A43CB881A430B8923
:103730001A434B891A438B891A43A0F844207047D7
:103740004FF6FF71818000210180C18041800172AC
:1037500070470021018041808180C18001814181C9
:103760008181C181704700210180418001218180D8
:103770000021C1800181704700210180418081804A
:10378000C18001814181818170470000002C01408E
:10379000003401400004004000080040000C0040DC
:1037A00021B1028842F00102028004E002884FF653
:1037B000FE731A400280704731B1B0F8442042F4E1
:1037C0000042A0F8442005E0B0F84420C2F30E0205
:1037D000A0F8442070471AB183890B43838102E02B
:1037E00083898B43838170478182704741EA02035A
:1037F000A0F8483070471AB183890B43838102E0F7
:1038000083898B438381704701894FF6F872114099
:10381000018170470A46002101894FF68F731940D4
:1038200011430181704730B504460D4629462046B4
:10383000FFF7F0FF208940F00700208130BD2DE91F
:10384000F04104460D4616461F46602D06D13B4604
:10385000012231462046FFF75AFE05E03B46012291
:1038600031462046FFF79DFE29462046FFF7D2FF4E
:10387000208940F007002081BDE8F08130B50C467A
:1038800000210189C9B24FF6FF7505EA03251543EA
:1038900025432943018130BD2DE9F04105460E46FF
:1038A00017469846002443463A4631462846FFF7D5
:1038B000E5FF2C894FF6F870044044F007044FF6FA
:1038C0008F70044044F070042C81BDE8F081F0B5A5
:1038D00004460D4616461F463B46324629462046BC
:1038E000FFF7CCFF208940F480402081F0BD0185A6
:1038F000828270470A46002101884FF68F73194073
:10390000114301807047F0B50C4615461E46002154
:10391000002200230189028B038C4FF6F87739408F
:1039200021434FF6FC473A4040F201173A434FF625
:10393000DD773B404FF6FF7707EA06172F433B43FF
:10394000018102830384F0BD0A460021018B4FF6FA
:103950008F7319401143018370470A460021018B80
:1039600048F6FF7319404FF6FF7303EA0223194329
:10397000018370470A460021818B4FF68F731940EF
:103980001143818370470A460021818B48F6FF73FB
:1039900019404FF6FF7303EA0223194381837047EE
:1039A00021B1028842F08002028004E002884FF6D2
:1039B0007F731A400280704721B1828842F004026E
:1039C000828004E082884FF6FB731A408280704741
:1039D00021B1828842F00802828004E082884FF69A
:1039E000F7731A408280704721B1828842F0010249
:1039F000828004E082884FF6FE731A40828070470E
:103A00000A460021018B4FF6F773194011430183D9
:103A100070470A460021018B4FF2FF7319404FF6A1
:103A2000FF7303EA02231943018370470A4600210A
:103A3000818B4FF6F77319401143818370470A4613
:103A40000021818B4FF2FF7319404FF6FF7303EA99
:103A500002231943818370470A460021018B4FF6E8
:103A6000FB7319401143018370470A460021018B03
:103A70004FF6FF3319404FF6FF7303EA0223194351
:103A8000018370470A460021818B4FF6FB73194072
:103A90001143818370470A460021818B4FF6FF3323
:103AA00019404FF6FF7303EA0223194381837047DD
:103AB0000A460021018B4FF67F73194011430183A1
:103AC00070470A460021018BC1F30E014FF6FF73C8
:103AD00003EA02231943018370470A460021818BC0
:103AE0004FF67F7319401143818370470A460021C6
:103AF000818BC1F30E014FF6FF7303EA02231943D2
:103B0000818370470A460021018C4FF6FD731940EE
:103B10001143018470470A460021018C4FF6F77368
:103B200019401143018470470A460021018C4FF669
:103B3000DF7319404FF6FF7303EA02131943018440
:103B400070470A460021018C4FF67F7319404FF6EB
:103B5000FF7303EA02131943018470470A460021E8
:103B6000018C4FF6FF5319404FF6FF7303EA02230F
:103B70001943018470470A460021018C4FF2FF73FC
:103B800019404FF6FF7303EA02231943018470477B
:103B90000A460021018C4DF6FF7319404FF6FF7362
:103BA00003EA023319430184704730B5002301242E
:103BB0008C40A3B2048C9C430484048C02FA01F56B
:103BC000ADB22C43048430BD30B5002304248C40B6
:103BD000A3B2048C9C430484048C02FA01F5ADB2B8
:103BE0002C43048430BD70B50346002000241846E1
:103BF000183001258D40ACB21D8CA5431D8409B140
:103C0000082909D100EB6100056825F07005056001
:103C10000568154305600EE00D1FC5F34E052844E9
:103C2000056825F4E045056005684FF6FF7606EA6D
:103C300002263543056070BD21B1028842F00202C0
:103C4000028004E002884FF6FD731A40028070473C
:103C500021B1028842F00402028004E002884FF69B
:103C6000FB731A400280704721B1828842F08002C3
:103C7000828004E082884FF67F731A40828070470A
:103C800002884FF6F7731A40028002880A430280C6
:103C9000704782884FF68F731A40828082880A4369
:103CA0008280704702894FF6F8731A4002810289B8
:103CB0000A430281704702894FF67F731A400281DE
:103CC00002890A4302817047818470478185704769
:103CD000818670470187704781877047A0F8401040
:103CE000704702884FF6FF431A40028002880A4359
:103CF000028070470146888E70470146088F7047E2
:103D00000146888F70470146B1F840007047014670
:103D1000888C70470146088D704702460020138A40
:103D20000B400BB1012000E000207047CA43028223
:103D3000704730B50246002000230024158A05EAAA
:103D40000103958905EA010413B10CB1012000E0DB
:103D5000002030BDCA430282704700000020444961
:103D60000860091D0860091D0860091D08604148B8
:103D70003F4914310860704700213D498279002A8B
:103D80003AD00A46126803689A430B461A600A1D25
:103D9000126803689A430B1D1A60027911440A687D
:103DA00003681A430A60324A0832126803689A4369
:103DB0002F4B08331A601A1D126803689A432C4B64
:103DC0000C331A604279102A0ED11A1F1268036848
:103DD0001A43274B08331A601A1D126803681A43E6
:103DE000234B0C331A600DE02149427911440A68D3
:103DF00003681A430A6005E0027911440A680368FF
:103E00009A430A6070470021016001710C214171E1
:103E10000021817170471649103109680143144A25
:103E200010321160704701460020114A14321268A6
:103E30000A400AB1012000E0002070470C4914310B
:103E400008607047014600200022094B1B6803EA06
:103E50000102074B14331B680B4013B10AB1012058
:103E600000E00020704702491431086070470000EC
:103E700000040140FFFF0F0010B50446FA488442D9
:103E800008D101214015FEF70DFE00216015FEF757
:103E900009FE17E0F548844208D101210015FEF71C
:103EA00001FE00212015FEF7FDFD0BE0F0488442E5
:103EB00008D10121C803FEF7F5FD00214FF40040B1
:103EC000FEF7F0FD10BD30B502460020002350681B
:103ED000E84C20400D790C6844EA052420435060EA
:103EE0009068E54C2040D1E902542C434D7944EAD6
:103EF000450420439060D06A20F470000C7C641E5E
:103F0000E4B2234340EA0350D06230BD0021016097
:103F1000017141718160C16001210174704721B15B
:103F2000826842F00102826003E0826822F00102AE
:103F30008260704721B1826842F48072826003E03F
:103F4000826822F480728260704710B50023CBB281
:103F50001AB144681C43446002E044689C434460D6
:103F600010BD816841F00801816070470146002062
:103F70008A6802F008020AB1012000E000207047C0
:103F8000816841F0040181607047014600208A6821
:103F900002F004020AB1012000E00020704721B1C4
:103FA000826842F4A002826003E0826822F4A002E8
:103FB00082607047014600208A6802F480020AB1DC
:103FC000012000E00020704710B50A4600210023C0
:103FD000416821F46041531E41EA4331416010BD04
:103FE00021B1426842F40062426003E0426822F478
:103FF000006242607047F0B504460D460020002183
:10400000092D11DDE068A5F10A0606EB4607072633
:1040100006FA07F18843A5F10A0606EB460603FAFD
:1040200006F10843E0600CE0206905EB4507072630
:1040300006FA07F1884305EB450603FA06F1084343
:104040002061072A0FDA606B561E06EB86071F26D3
:1040500006FA07F18843561E06EB860605FA06F1B6
:104060000843606322E00D2A0FDA206BD61F06EBAF
:1040700086071F2606FA07F18843D61F06EB860639
:1040800005FA06F10843206310E0E06AA2F10D068C
:1040900006EB86071F2606FA07F18843A2F10D06F4
:1040A00006EB860605FA06F10843E062F0BD21B191
:1040B000826842F48012826003E0826822F48012F7
:1040C000826070470146C86C80B2704766484C30C9
:1040D0000068704721B1426842F48062426003E0A8
:1040E000426822F480624260704721B1426842F423
:1040F0008052426003E0426822F48052426070477E
:104100000A460021816821F4E04111438160704733
:1041100021B1826842F40042826003E0826822F4A6
:1041200000428260704721B1826842F402128260CC
:1041300003E0826822F40212826070470146002088
:104140008A6802F400120AB1012000E000207047E2
:10415000F0B504461546002000220026092911DD8D
:10416000E068A1F10A0707EB470C072707FA0CF2F2
:104170009043A1F10A0707EB470703FA07F2104340
:10418000E0600CE0206901EB410C072707FA0CF214
:10419000904301EB410703FA07F210432061A06B43
:1041A000C0F30156EF1C06F1010CA7EB0C0707EB5F
:1041B000870C1F2707FA0CF29043EF1C06F1010C45
:1041C000A7EB0C0707EB870701FA07F21043A06380
:1041D000F0BD10B50A4600210023816B21F4401187
:1041E000531E41EA0351816310BD08B500230093BB
:1041F0000090009B0B440093009B1A6008BD08B51B
:10420000024600200090009201F12800009B184413
:1042100000900098006880B208BD0A4600214168FD
:10422000164B1940114341607047416282627047EA
:104230000A460021416821F01F0111434160704787
:1042400040B109490831096841F40001064A0832C1
:10425000116007E004490831096821F40001024AAD
:10426000083211607047000000240140002801401E
:10427000003C0140FFFEF0FFFDF7F1FFFFFD3FFFB7
:104280000246002013680B400BB1012000E0002023
:104290007047CA430260704770B502460020002391
:1042A00000240B125568CEB205EA060415681D40BD
:1042B00015B10CB1012000E0002070BD00220A12EF
:1042C000D34303607047000001684FF6FE7211404F
:1042D00001600021016041608160C1608D498842B8
:1042E00008D18C490839496841F00F01894A083AD8
:1042F00051608AE087491431884208D185490839DC
:10430000496841F0F001834A083A51607DE08149F3
:104310002831884208D17F490839496841F47061E1
:104320007C4A083A516070E07A493C31884208D1B1
:1043300078490839496841F47041764A083A516031
:1043400063E074495031884208D17249083949689C
:1043500041F470216F4A083A516056E06D4964316A
:10436000884208D16B490839496841F47001694AAB
:10437000083A516049E067497831884208D1654977
:104380000839496841F07061624A083A51603CE07E
:104390006149884206D1011F096841F00F01021FDF
:1043A000116032E05C491431884208D15A49091F32
:1043B000096841F0F001584A121F116025E0564982
:1043C0002831884208D15449091F096841F47061B5
:1043D000514A121F116018E04F493C31884208D100
:1043E0004D49091F096841F470414B4A121F116081
:1043F0000BE049495031884207D14749091F0968F4
:1044000041F47021444A121F1160704710B5002218
:10441000026847F6F0739A430C6A8B6823430C6971
:1044200023434C6923438C692343CC6923434C6A5F
:1044300023438C6A23431A430260CB6843600B68B2
:1044400083604B68C36010BD0021016041608160E2
:10445000C160016141618161C1610162416281624A
:10446000704721B1026842F00102026004E0026874
:104470004FF6FE731A40026070471AB103680B438F
:10448000036002E003688B4303607047416070473C
:104490000146486880B2704701460020002201F0C2
:1044A00080531BB11C4B083B1A6802E0194B083BB8
:1044B0001A6802EA01030BB1012000E000207047F6
:1044C00000F0805119B11449091F086002E0114938
:1044D00008394860704701460020002201F08053EF
:1044E0001BB10D4B083B1A6802E00A4B083B1A68E7
:1044F00002EA01030BB1012000E00020704700F048
:10450000805119B10449091F086002E001490839C6
:10451000486070470800024008040240014600203D
:10452000FE4A106800F03800084310607047FB49ED
:10453000096821F00801F94A116011460968014330
:1045400011607047F549096821F01001F34A1160C4
:1045500011460968014311607047F148EF4948600E
:10456000F04848607047EE48EC494860ED484860C4
:104570007047EA48006940F08000E84908617047E8
:10458000E648006940F08000E44908617047042073
:10459000E249C96801F0010109B101200EE0DF49DB
:1045A000C96801F0040109B1022007E0DB49C968CC
:1045B00001F0100109B1032000E00420704700B5AC
:1045C00002460423FFF7E3FF034603E0FFF7DFFFA4
:1045D0000346521E012B01D1002AF7D102B905234F
:1045E000184600BD30B5044604254FF43020FFF7CF
:1045F000E6FF0546042D17D1C848006940F00200C7
:10460000C649086108464461006940F040000861FD
:104610004FF43020FFF7D3FF0546C048006941F64C
:10462000FD710840BD490861284630BD10B504241D
:104630004FF43020FFF7C3FF0446042C16D1B748CF
:10464000006940F00400B54908610846006940F07F
:10465000400008614FF43020FFF7B1FF0446AF4837
:10466000006941F6FB710840AC490861204610BD65
:1046700000B502460423FFF78AFF034603E0FFF775
:1046800086FF0346521E012B01D1002AF7D102B941
:104690000523184600BD10B504244FF43020FFF761
:1046A000E7FF0446042C16D19C48006940F0040042
:1046B0009A4908610846006940F0400008614FF4DB
:1046C0003020FFF7D5FF04469448006941F6FB719E
:1046D000084092490861204610BD00208F49C969F1
:1046E00001F0020109B1012000E00020704730B55F
:1046F000A5250424FFF7F1FF00B100254FF4302079
:10470000FFF75DFF0446042C3AD185488349886051
:10471000844888600846006940F020000861084627
:10472000006940F0400008614FF43020FFF747FF78
:104730000446042C1BD17948006941F6DF7108401A
:10474000764908610846006940F010000861764823
:104750000580E002FFF733FF0446052C10D06F48B8
:10476000006941F6EF7108406C49086108E0052CCA
:1047700006D06A48006941F6EF7108406749086150
:10478000204630BD78B506460C4604250020009032
:10479000E802FFF714FF0546042D24D15F480069A5
:1047A00040F001005D4908613480E802FFF707FF2F
:1047B0000546042D10D1B01C0090200C00990880F3
:1047C000E802FFF7FCFE05465448006941F6FE7119
:1047D00008405249086106E05048006941F6FE7100
:1047E00008404E490861284678BD70B504460D461C
:1047F0000426F002FFF7E3FE0646042E11D14748D7
:10480000006940F00100454908612580F002FFF78A
:10481000D6FE06464148006941F6FE7108403F4910
:104820000861304670BD70B505460E460424E002AE
:10483000FFF7C5FE0446042C17D139483749886074
:10484000384888600846006940F0100008612E80F2
:10485000E002FFF7B4FE0446052C06D02F4800699D
:1048600041F6EF7108402D490861204670BD2DE9E1
:10487000F04304464FF6FF763746B046B14604256E
:10488000E443E6B2C4F30727C4F307484FEA1469C8
:10489000E802FFF794FE0546042D49D120481F4940
:1048A0008860204888600846006940F01000086170
:1048B000FF2E06D01C4808300680E802FFF77FFE76
:1048C0000546042D08D1FF2F06D017480A3007806F
:1048D000E802FFF774FE0546042D0AD1B8F1FF0F78
:1048E00007D011480C30A0F80080E802FFF767FEFF
:1048F0000546042D0AD1B9F1FF0F07D00A480E3042
:10490000A0F80090E802FFF75AFE0546052D0FD0EB
:104910000248006941F6EF71084007E000200240BC
:1049200023016745AB89EFCD00F8FF1F6649086199
:104930002846BDE8F08330B5054604244FF4302006
:10494000FFF73DFE0446042C41D160485E49886073
:104950005F4888600846006940F02000086108460A
:10496000006940F0400008614FF43020FFF727FE57
:104970000446042C22D15448006941F6DF710840F6
:10498000514908610846006940F0100008611DB1F6
:1049900000205049088002E0A5204E4908804FF4CD
:1049A0003020FFF70CFE0446052C10D04648006965
:1049B00041F6EF7108404449086108E0052C06D033
:1049C0004148006941F6DF7108403F4908612046CF
:1049D00030BDF0B505460E46174604243B483A491B
:1049E00088603B488860E002FFF7E9FD0446042C3C
:1049F00019D13548006940F010003349086147F08B
:104A0000F800304328433349891C0880E002FFF74F
:104A1000D6FD0446052C06D02B48006941F6EF71FF
:104A20000840294908612046F0BD2748C069800830
:104A300070472548006A704700202349096801F043
:104A4000200109B1012000E00020704729B11E4A71
:104A5000126902431C4B1A6104E01B4A126982432B
:104A6000194B1A61704701460020012908D1164AE6
:104A7000D26902F001020AB1012008E0002006E03C
:104A8000114AD2680A400AB1012000E000207047B4
:104A90000D49C860704704200B49C96801F0010145
:104AA00009B101200EE00849C96801F0040109B10B
:104AB000022007E00449C96801F0100109B1032090
:104AC00000E00420704700000020024023016745F9
:104AD000AB89EFCD00F8FF1F10B50446F7488442BC
:104AE00009D101214805FDF7EAFF00214FF400102C
:104AF000FDF7E5FF08E001218805FDF7E0FF002153
:104B00004FF48000FDF7DBFF10BD2DE9F04385B0C9
:104B100004460D460026B1460427DFF8A483A68884
:104B20004FF6C07006406846FDF735FFDDF8088097
:104B3000E448B8FBF0F01FFA80F946EA0906A680BF
:104B400020884FF6FE71084020800026DE49286844
:104B500088420CD828684000B8FBF0F087B2042FD8
:104B600000DA04273E4309F10100208427E0E888A9
:104B70004BF6FF71884206D1286800EB4000B8FB75
:104B8000F0F087B209E0286800EBC00101EB0010EB
:104B9000B8FBF0F087B247F48047C7F30B0008B9C1
:104BA00047F0010747F4004006434FF4967009FBB5
:104BB00000F04FF47A7190FBF1F0401C2084A68342
:104BC000208840F00100208026884FF6F53006400E
:104BD000A8886989084306432680A889298908434B
:104BE000208105B0BDE8F08341F2883101600021E9
:104BF00081804BF6FF71C1800021018141814FF41A
:104C000080418181704721B1028842F00102028017
:104C100004E002884FF6FE731A400280704721B10B
:104C2000828842F40062828004E082884FF2FF733F
:104C30001A408280704721B1828842F4805282807B
:104C400004E082884EF6FF731A408280704721B1DB
:104C5000028842F48072028004E002884FF6FF630B
:104C60001A400280704721B1028842F4007202802B
:104C700004E002884FF6FF531A400280704721B1CA
:104C8000028842F48062028004E002884FF6FF331B
:104C90001A40028070470A46002181894FF601734D
:104CA000194002F0FE0319438181704721B18289C6
:104CB00042F00102828104E082894FF6FE731A40BD
:104CC0008281704721B1028842F04002028004E0F4
:104CD00002884FF6BF731A40028070471AB183886A
:104CE0000B43838002E083888B438380704701827B
:104CF00070470146088AC0B2704712B141F0010105
:104D000002E04FF6FE7319400182704708B5024673
:104D100000200090009200980844009000980088BD
:104D200008BD21B1028842F40042028003E00288FB
:104D3000C2F30E0202807047B1F5006F04D1028801
:104D400042F40062028004E002884FF2FF731A40CE
:104D500002807047B1F5005F04D1028842F400522E
:104D6000028004E002884DF6FF731A40028070470B
:104D700021B1028842F48052028004E002884EF69B
:104D8000FF731A4002807047B1F5006F04D10288AA
:104D900042F40062028004E002884FF2FF731A407E
:104DA0000280704721B1028842F02002028004E0B4
:104DB00002884FF6DF731A40028070470146088B65
:104DC0000012704721B1028842F01002028004E014
:104DD00002884FF6EF731A400280704721B90288AB
:104DE00042F08002028004E002884FF67F731A408E
:104DF00002807047B1F5804F05D0828B4BF6FF7370
:104E00001A40828303E0828B42F48042828370479F
:104E100070B502460024002500230020958A138BDC
:104E20001B0445EA030626F07F4404EA01068E428D
:104E300001D1012000E0002070BD10B50146002026
:104E4000002300228B8A0A8B120443EA020424F016
:104E50007F4010BD0CB50246002000230193009353
:104E600000920B0F019321F07F41019B1BB1009B2E
:104E70001433009303E0090C009B18330093009B4C
:104E80001B680B400BB1012000E000200CBD00228C
:104E900021F07F42D3438382704730B50246002021
:104EA0000023948801F0E06504EA154321F07F4176
:104EB000948A0C4054B14BB1012008E000540040EA
:104EC00000127A0040420F00A0860100002030BD91
:104ED000002221F07F42D3438382704700F1080112
:104EE00041604FF0FF31816000F10801C160016154
:104EF00000210160704700210161704742684A60EB
:104F000093688B60936859609160086103685B1CCB
:104F10000360704710B502460B685C1C0CB9106941
:104F200007E002F1080000E04068446824689C4201
:104F3000FAD944684C604C68A160886041600A619D
:104F40001468641C146010BD01460A69D1E901307F
:104F50009860D1E9010358605068884201D188689F
:104F60005060002008611068401E10601068704793
:104F700070B505460E462C462CB940F21B12FAA11C
:104F8000FEA003F0C1F802F0C2FED4E90F122068BF
:104F900001FB020060600020A0632068A060E06B5D
:104FA000401E226C216800FB0210E060FF2084F8A4
:104FB000440084F845009EB9206908B9012000E04A
:104FC0000020A8B904F1100001F018FE80B14FF0E4
:104FD0008050EE490860BFF34F8FBFF36F8F07E03B
:104FE00004F11000FFF77AFF04F12400FFF776FFC9
:104FF00002F0B0FE012070BD2DE9F04106460D46DD
:1050000017469846069C0DB9246000E02760E663C9
:10501000256401212046FFF7ABFF84F85080002073
:10502000A064BDE8F0812DE9F84305460E469046A0
:105030000DB1012000E0002028B94FF4C472CAA1CC
:10504000CEA003F061F80EB9002701E005FB06F7DA
:1050500007F1540002F067FF044644B104F154091B
:1050600043464A46314628460094FFF7C5FF20468E
:10507000BDE8F8832DE9F04104460F4615464FF090
:105080000008A66B206C40B9206860BB606801F026
:1050900018FF80460020606025E07DB93946226C0B
:1050A000A06803F02EF9216CA0680844A060D4E940
:1050B0000110884217D32068A06014E03946226CA2
:1050C000E06803F01EF9216CE068401AE060216896
:1050D000E068884203D2216C6068401AE060022DCB
:1050E00001D106B1761E701CA0634046BDE8F08178
:1050F0002DE9F3410D460098846C00272CB940F649
:10510000CE1299A19DA002F0FFFFA06BE16B884237
:1051100001D2012000E0002028B940F6CF1292A170
:1051200096A002F0F1FFA06BE16B88421BD294F9CC
:1051300045602A4669462046FFF79CFF0746701CDB
:1051400060B9606A08B9012000E0002050B904F19C
:10515000240001F053FD28B1012703E0701C40B288
:1051600084F8450000BF3846BDE8FC8170B50446B0
:1051700002F0CDFD94F945501AE0A06C38B1002141
:105180002046FFF7B5FF88B101F02BFE0EE0606A04
:1051900008B9012000E0002038B904F1240001F032
:1051A0002DFD18B101F01DFE00E003E0681E45B2C0
:1051B000002DE2DC00BFFF2084F8450002F0CAFDAC
:1051C00002F0A5FD94F9445010E0206908B90120CF
:1051D00000E0002048B904F1100001F00FFD08B113
:1051E00001F0FFFD681E45B200E001E0002DECDC9F
:1051F00000BFFF2084F8440002F0ACFD70BD70B524
:10520000054602F084FDA86BE96B884201D10124B8
:1052100000E0002402F09EFD204670BD2DE9FF4312
:1052200083B0064688461D464FF0000934462CB927
:1052300040F2D9224CA151A002F066FFB8F1000F54
:1052400001D1206C08B9012000E0002028B940F20B
:10525000DA2245A149A002F057FF022D02D1E06BEE
:10526000012801D1012000E0002028B940F2DB2212
:105270003DA142A002F048FF01F0C5FD08B9059824
:1052800008B9012000E0002028B940F2DE2236A152
:105290003AA002F039FF00BF02F039FDA06BE16BCC
:1052A000884201D3022D38D12A4641462046FFF7D5
:1052B000E1FE0746A06C68B129462046FFF718FFBB
:1052C00028B34FF0805031490860BFF34F8FBFF3D0
:1052D0006F8F1CE0606A08B9012000E0002068B907
:1052E00004F1240001F08AFC88B14FF08050274976
:1052F0000860BFF34F8FBFF36F8F08E03FB14FF0EF
:10530000805022490860BFF34F8FBFF36F8F02F0C8
:1053100021FD012007B0BDE8F083059818B902F01F
:1053200019FD0020F6E7B9F1000F04D101A801F042
:10533000E9FC4FF0010902F00DFD00F07FFF02F0E3
:10534000E6FC94F94400401C10B9002084F84400A5
:1053500094F94500401C10B9002084F8450002F083
:10536000F9FC05A901A813E02E2E5C467265655272
:10537000544F535C71756575652E63004572726F8D
:10538000723A25732C25640D0A00000004ED00E03C
:1053900001F0CAFCF8B92046FFF731FFA8B104F1CB
:1053A0001000059901F0CCFB2046FFF7DFFE00F06E
:1053B0009AFE00287FF470AF4FF08050FA490860E1
:1053C000BFF34F8FBFF36F8F66E72046FFF7CEFE28
:1053D00000F089FE60E72046FFF7C8FE00F083FE7C
:1053E000002097E710B504464CB1002060602060B3
:1053F000E06000231A4619462046FFF70FFF10BD54
:105400002DE9F04104460126002722460021012013
:10541000FFF709FE05462846FFF7E4FF2846BDE8EA
:10542000F08170B5064634463CB940F24122AFF2F5
:10543000C801AFF2B80002F067FE01F0E1FC61685C
:1054400088420CD1E068401EE060E06828B9002383
:105450001A4619462046FFF7E1FE012500E0002527
:10546000284670BD70B5054602F051FCA86B08B91E
:10547000012400E0002402F06DFC204670BD70B5F0
:1054800004460D46206C70B1216CE0680844E06071
:105490006168E068884201D32068E0602846226C99
:1054A000E16802F02EFF70BD2DE9FF4782B005468E
:1054B0000E461F464FF0000A2C463CB940F2DC4233
:1054C000AFF25C11AFF24C1002F01EFE0EB9206C70
:1054D00008B9012000E0002038B940F2DD42AFF207
:1054E0007811AFF2681002F00FFE01F08CFC08B9E1
:1054F000049808B9012000E0002038B94FF49C62FC
:10550000AFF29C11AFF28C1002F0FEFD00BF02F072
:10551000FEFBD4F83890B9F1000F3DD0D4F80C80E0
:1055200031462046FFF7ABFFDFB9A9F10100A063C8
:10553000206810B901F0FFFD6060206908B9012002
:1055400000E0002010BB04F1100001F057FBE8B1AF
:105550004FF0805094490860BFF34F8FBFF36F8FB7
:1055600014E0C4F80C80606A08B9012000E0002053
:1055700060B904F1240001F041FB38B14FF08050D4
:1055800089490860BFF34F8FBFF36F8F02F0E2FBD2
:10559000012006B0BDE8F087049818B902F0DAFBE4
:1055A0000020F6E7BAF1000F04D1684601F0AAFB2B
:1055B0004FF0010A02F0CEFB00F040FE02F0A7FB24
:1055C00094F94400401C10B9002084F8440094F978
:1055D0004500401C10B9002084F8450002F0BAFBD9
:1055E00004A9684601F0A0FB40BB2046FFF73AFF44
:1055F000F0B1206830B902F08AFB606801F00FFC5E
:1056000002F0A8FB04F12400049901F099FA204665
:10561000FFF7ACFD00F067FD00287FF478AF4FF096
:10562000805061490860BFF34F8FBFF36F8F6EE703
:105630002046FFF79BFD00F056FD68E72046FFF788
:1056400095FD00F050FD2046FFF70CFF0028EED03E
:1056500000209EE72DE9F04106460F4634463CB94E
:105660004FF41E72AFF20031AFF2F02002F04CFDA9
:1056700001F0C6FB6168884204D1E068401CE0602C
:1056800001250AE000233A4619462046FFF70CFFA1
:10569000054615B1E068401CE0602846BDE8F08191
:1056A00070B505460E460DB1012000E0002038B966
:1056B00040F2BD22AFF25031AFF2403002F024FD93
:1056C000AE4201D8012000E0002038B940F2BE22ED
:1056D000AFF26C31AFF25C3002F016FD0222002115
:1056E0002846FFF7A0FC044604B1A663204670BD1F
:1056F0002DE9F05F80468A4615461E4644463CB971
:1057000040F29F32AFF2A031AFF2903002F0FCFCD9
:10571000BAF1000F01D1206C08B9012000E000208F
:1057200038B94FF46872AFF2C031AFF2B03002F066
:10573000EBFC022E02D1E06B012801D1012000E038
:10574000002038B940F2A132AFF2E431AFF2D430E8
:1057500002F0DAFC02F02EFB00BF5021EFF31180C3
:1057600081F31188BFF34F8FBFF36F8F00BF0746E0
:10577000A06BE16B884201D3022E2ED194F945B083
:10578000324651462046FFF775FC0BF10100E0B9A7
:10579000A06C58B131462046FFF7AAFCD0B1CDB17C
:1057A0000120286016E0000004ED00E0606A08B9FE
:1057B000012000E0002068B904F1240001F01EFA85
:1057C00040B13DB10120286004E00BF1010040B27E
:1057D00084F845004FF0010901E04FF0000900BFD7
:1057E00087F3118800BF4846BDE8F09F2DE9F047D8
:1057F00007460D463C463CB940F23C42AFF2984168
:10580000AFF2884002F080FC206C08B9012000E073
:10581000002038B94FF48862AFF2B441AFF2A4402F
:1058200002F072FC206808B9606808B9012000E045
:10583000002038B940F24542AFF2D441AFF2C44043
:1058400002F062FC02F0B6FA00BF5021EFF31180C3
:1058500081F31188BFF34F8FBFF36F8F00BF0646F0
:10586000D4F83890E06B484529D994F945A009F15E
:105870000100A0630AF10100C8B9A06C40B1002189
:105880002046FFF735FCB8B1B5B10120286013E020
:10589000606A08B9012000E0002068B904F1240022
:1058A00001F0ACF940B13DB10120286004E00AF1FB
:1058B000010040B284F845004FF0010801E04FF0CC
:1058C000000800BF86F3118800BF4046BDE8F0879E
:1058D0002DE9F05F06468946174634463CB94FF439
:1058E000B462AFF27C51AFF26C5002F00DFCB9F132
:1058F000000F01D1206C08B9012000E0002038B968
:1059000040F2A152AFF2A051AFF2905002F0FCFB76
:1059100002F050FA00BF5021EFF3118081F311889B
:10592000BFF34F8FBFF36F8F00BF0546D4F838A089
:10593000BAF1000F22D094F944B049462046FFF74F
:105940009EFDAAF10100A0630BF1010070B920696E
:1059500008B9012000E0002068B904F1100001F04E
:105960004DF940B13FB10120386004E00BF1010076
:1059700040B284F844004FF0010801E04FF0000805
:1059800000BF85F3118800BF4046BDE8F09F2DE9B8
:10599000F0470646884634463CB940F2FC52AFF226
:1059A0003861AFF2286002F0AFFBB8F1000F01D10F
:1059B000206C08B9012000E0002038B940F2FD5207
:1059C000AFF25C61AFF24C6002F09EFB206C08B15C
:1059D000012000E0002038B940F2FE52AFF27861B9
:1059E000AFF2686002F090FB02F0E4F900BF5021D2
:1059F000EFF3118081F31188BFF34F8FBFF36F8FE7
:105A000000BF0546A06B48B1D4F80C904146204633
:105A1000FFF735FDC4F80C90012700E0002700BF18
:105A200085F3118800BF3846BDE8F08770B504469D
:105A30003CB940F22F62AFF2D061AFF2C06002F029
:105A400063FB02F064F9A56B02F084F9284670BD8F
:105A500070B5044625463DB940F24162AFF2F861A7
:105A6000AFF2E86002F050FB02F051F9D5E90E10F8
:105A7000461A02F06FF9304670BD70B504463CB965
:105A800040F25162AFF22071AFF2107002F03CFBB5
:105A9000A56B284670BD014600200EE0764A02EB59
:105AA000C00252688A4207D10022734B43F830206B
:105AB00003EBC0035A6002E0401C0828EED300BF8D
:105AC000704770B5044625463DB940F25D62AFF2BD
:105AD0006871AFF2587002F017FB2846FFF7DBFF42
