:020000040800F2
:10000000405B00205D0700087103000873030008CF
:10001000750300087703000879030008000000005A
:10002000000000000000000000000000E9010008DE
:100030007B030008000000002D0200087105000885
:100040007707000877070008770700087707000898
:100050007707000877070008770700087707000888
:100060007707000877070008770700087707000878
:100070007707000877070008770700087707000868
:100080007707000877070008770700087707000858
:100090007707000877070008770700087707000848
:1000A0007707000877070008770700087707000838
:1000B000770700083B050008770700087707000866
:1000C0007707000877070008770700087707000818
:1000D00077070008F506000877070008770700088B
:1000E00077070008770700087707000877070008F8
:1000F00077070008770700087707000877070008E8
:1001000077070008770700087707000877070008D7
:1001100077070008770700087707000877070008C7
:1001200077070008770700087707000877070008B7
:1001300000F002F800F048F80AA090E8000C8244B1
:100140008344AAF10107DA4501D100F03DF8AFF28E
:10015000090EBAE80F0013F0010F18BFFB1A43F0A5
:10016000010318470448000024480000103A24BF47
:1001700078C878C1FAD8520724BF30C830C144BF0C
:1001800004680C607047000000230024002500264E
:10019000103A28BF78C1FBD8520728BF30C148BFEA
:1001A0000B607047642904F0BD81752904F0BA81A1
:1001B000632904F00883732904F00D83002070473D
:1001C0001FB51FBD10B510BD04F09BFB1146FFF716
:1001D000F7FF00F096F804F0B9FB03B4FFF7F2FF65
:1001E00003BC00F031FA0000224B19680868B0E83F
:1001F000F00F80F30988BFF36F8F4FF0000080F39A
:1002000011884EF00D0E704700000000064800688F
:10021000006880F3088862B661B6BFF34F8FBFF302
:100220006F8F00DF00BF00BF08ED00E0EFF3098033
:10023000BFF36F8F0F4B1A6820E9F00F106008B5FD
:100240004FF0500080F31188BFF34F8FBFF36F8FD3
:1002500002F01EFD4FF0000080F31188BDE8084059
:1002600019680868B0E8F00F80F30988BFF36F8F52
:10027000704700BF50000020EFF30580704700007A
:100280004FF47A74204602F037FCFBE74FF47A749F
:10029000204602F031FCFBE74FF47A74204602F06E
:1002A0002BFCFBE77CB503F027FF0220224900234B
:1002B0000502CDE900012A4620A1AFF2230002F099
:1002C00059FA1D480424001DCDE9004000232A46A8
:1002D0001EA1AFF2470002F04DFA17482A46083037
:1002E000CDE9004000231CA1AFF26B0002F042FAFE
:1002F0001148001F006802F068FABDE87C4003F076
:1003000015BF1CB54FF4407000F048FA00F03AF900
:100310004FF4E13000F0A2F907490120091F002342
:10032000CDE9000180220FA1AFF2870002F022FA8E
:1003300002F0DEFD00201CBD040000205265636554
:100340006976655F7461736B0000000053656E64CD
:100350005F7461736B000000436865636B5F746179
:10036000736B000073746172745F7461736B00006F
:100370007047FEE7FEE7FEE7FEE770470CB5002298
:100380004C4800920192016841F4803101604FF4C1
:10039000A063016801F4003101910099491C0091AA
:1003A000019911B900999942F3D10168890333D5B4
:1003B0000121019140490A6842F010020A600A686E
:1003C00022F003020A600A6842F002020A604168F1
:1003D000416041684160416841F480614160416829
:1003E00021F47C114160416841F4E81141600168E9
:1003F00041F08071016001688901FCD5416821F0FC
:1004000003014160416841F0020141604168C1F36C
:1004100081010229FAD10CBD01920CBD254810B50D
:10042000016841F0010101604168244A11404160C6
:100430000168234A11400160016821F480210160B4
:10044000416821F4FE0141604FF41F018160FFF714
:1004500095FF1C494FF00060086010BD154A10B5AB
:100460005068194B10F00C01184803D0042901D032
:10047000082901D0036012E05168536801F470113B
:100480004FF0020413F4803F04EB914102D0536813
:100490009B0301D50E4B00E00B4B594301605168A3
:1004A0000A4AC1F30311121D515C0268CA4002607E
:1004B00010BD000000100240002002400000FFF8C4
:1004C000FFFFF6FE08ED00E000127A0010000020A9
:1004D00000093D007FB50D4604460121022000F0D1
:1004E000FDFBADF80440ADF8005000241E4DADF802
:1004F0000640ADF802406946284600F061FE012240
:100500001146284601F019F91D208DF80C00012133
:100510008DF80D108DF80E408DF80F1003A800F027
:1005200042F90121284601F0F3F87FBD0F4800226F
:100530000260426047213120CCE710B50A4C01210E
:10054000204601F00EFB012807D108490A684868D7
:10055000521C40F100000A6048602046BDE810408F
:10056000012101F00ABB0000000400402800002027
:1005700010B502F00BFF012803D0BDE8104003F0D6
:10058000E6BD10BD10B5042000F04DF92B482C49F4
:100590002C4A0068B0FBF1F3B0FBF1F14FF47A7034
:1005A00041431370012050804FF0E020026942F077
:1005B000020202614161016941F00101016110BD66
:1005C00070B54FF0E02500216C691E4AAB691278C6
:1005D0005043AA699A42FCD002D2A3EB020302E084
:1005E000A4EB02063344194413468142F1D370BD93
:1005F00070B5044602F0CAFE01280CD0114D68887F
:10060000844203D3B4FBF0F002F076FA6888B4FBBE
:10061000F0F100FB11444FF47A706043BDE8704084
:10062000CEE770B5054600244FF47A7603E03046F5
:10063000FFF7C6FF641CAC42F9D370BD1000002068
:1006400040420F0030000020704740490A8852069F
:10065000FCD53E4AC1B2121D1180704770B50546E7
:1006600086B0012144F2040000F02FFB4FF400702B
:10067000ADF8100003248DF812401820344E8DF888
:10068000130004A9304600F038F93015ADF8100019
:1006900004208DF8130004A9304600F02EF925201F
:1006A0008DF814008DF815408DF8164001208DF856
:1006B000170005A800F077F80020ADF80400ADF8A9
:1006C0000600ADF80800ADF80C000C201F4CADF88A
:1006D0000A0000956946204600F076FB012240F2B0
:1006E0002551204600F0EDFB0121204600F0DFFB04
:1006F00006B070BD70B5154C40F22551204600F093
:1007000097FC00280ED0204600F02BFC114AC1B205
:100710001088030406D444044FF0000306D50A29C8
:1007200001D0138070BD40F400400DE00D2909D0C8
:10073000C0F30D04084D401C80B229551080C72815
:10074000EFD870BD40F48040108070BD003801408B
:100750000008014034000020CC00002009488047F8
:1007600009480047FEE7FEE7FEE7FEE7FEE7FEE793
:10077000FEE7FEE7FEE7FEE704480549054A064BAB
:10078000704700001D04000831010008405500209A
:10079000405B002040570020405700202849084374
:1007A00028490860704730B50F23C27801780125C9
:1007B000F2B1244A126801F1E02102F4E062C2F5CC
:1007C000E062120AC2F10404D3404278A240847865
:1007D0001C401443220181F80024007800F01F011E
:1007E0008D404009800000F1E020C0F8005130BD8C
:1007F00001F01F0085404809800000F1E020C0F8AA
:10080000805130BD104A114001430E48001F016065
:1008100070470C4A121D0029116801D0014300E005
:100820008143116070474FF0E0210428086903D02C
:1008300020F004000861704740F00400FAE700006F
:100840000000FA050CED00E080FFFF1F8F4910B596
:10085000884206D10121042000F049FA0021042039
:100860003BE08B49884206D10121082000F03FFA85
:100870000021082031E08749884206D1012110205B
:1008800000F035FA0021102027E08349884206D184
:100890000121202000F02BFA002120201DE07F49BB
:1008A000884206D10121402000F021FA0021402099
:1008B00013E07B49884206D10121802000F017FA1D
:1008C0000021802009E0774988420AD1841501215E
:1008D000204600F00CFA00212046BDE8104000F050
:1008E00006BA10BD10B50121084600F000FA00213B
:1008F000BDE81040012000F0FAB9F0B5CC78002234
:1009000004F00F03E40601D58C7823430C784FF0F4
:100910000F0C14F0FF0F4FF0010E1BD005680E886E
:100920000EFA02F42640A64210D196000CFA06F701
:1009300025EA070703FA06F5CE783D43282E02D0B4
:10094000482E02D002E0446100E00461521C082AF3
:10095000E5D305600A88FF2A1CD94468002202F109
:1009600008060EFA06F50E882E40AE420ED196000D
:100970000CFA06F7BC4303FA06F7CE783C43282E60
:1009800000D14561CE78482E00D10561521C082A5D
:10099000E5D34460F0BD4FF6FF7101800221817004
:1009A0000421C17070470246002092680A4200D0BC
:1009B00001207047806880B2704702460020D268EC
:1009C0000A4200D001207047C06880B270470161C0
:1009D0007047416170470AB10161704741617047DA
:1009E000C160704741F480328261816182618169B6
:1009F000806970472C4B10B51A684FF680742240FE
:100A000042EA00100843186010BD2849C8617047C9
:100A1000F0B5254C002801DAE36900E06368450D74
:100A20002E0185B2C0F30157B540C0F30342032F36
:100A300005D0C6020AD503269640B34307E023F04B
:100A40007062636823F07063636002E0AB4343F05D
:100A5000706201B12A43002801DAE261F0BD6260F0
:100A6000F0BD10B58A0721F003040F49120F21448D
:100A70000F238C6893409C438C608B6890400343A9
:100A80008B6010BD0949C1F8DC00704700080140C7
:100A9000000C01400010014000140140001801400A
:100AA000001C0140002001400000014000002042E5
:100AB000A548016841F0010101604168A34A114065
:100AC00041600168A24A11400160016821F480215F
:100AD0000160416821F4FE0141604FF41F01816013
:100AE000704799490A6822F480320A600A6822F441
:100AF00080220A60B0F5803F07D0B0F5802F03D187
:100B0000086840F4A02008607047086840F480300E
:100B1000F9E70346002059098B4A01290AD0022926
:100B20000AD0516A03F01F02012393400B4200D008
:100B3000012070471168F5E7116AF3E718B5002046
:100B40004FF4A06400903120FFF7E3FF0099491CA7
:100B50000091A14201D00028F5D03120FFF7D9FF44
:100B6000002800D0012018BD774A116821F0F80153
:100B700041EAC00010607047764908607047724BC8
:100B80005A68084322F47C12104358607047714938
:100B9000086670476C4A516821F0030101435160B7
:100BA00070476948406800F00C007047664A516819
:100BB00021F0F001014351607047634A516821F40C
:100BC000E0610143516070475F4A516821F4605110
:100BD00041EAC000506070475B4A0029517A01D059
:100BE000014300E08143517270475A49C1F8D8006F
:100BF0007047554A516821F44041014351607047A4
:100C00005149002281F8202081F82020012802D0BB
:100C1000042802D1052081F8200070474E49086061
:100C2000704749490A6A02430A6270474A4944398F
:100C30000860704730B5444A5168484B11F00C01C8
:100C400003D0042901D0082901D0036012E05168C3
:100C5000536801F470114FF0020413F4803F04EB69
:100C6000914102D053689B0301D53D4B00E03B4BC3
:100C70005943016051680F2303EA1111394B5C5C41
:100C80000168E14041605468072505EA14241C5DB1
:100C900021FA04F48460546805EAD4241B5DD94029
:100CA000C1605268032303EA92322E4B1B1F9A5CE9
:100CB000B1FBF2F1016130BD234A0029516901D035
:100CC000014300E08143516170471F4A0029916947
:100CD00001D0014300E08143916170471A4A002925
:100CE000D16901D0014300E08143D1617047164AC8
:100CF0000029D16801D0014300E08143D1607047F1
:100D0000114A0029116901D0014300E081431161BA
:100D1000704711494039086070470E49C8647047F0
:100D20000949C87170470848416A41F080714162C1
:100D30007047054A0146002092680A4200D001200F
:100D40007047014988727047001002400000FFF8A8
:100D5000FFFFF6FE000042428004424200127A0089
:100D600000093D0040000020C44910B588420AD166
:100D700001218C032046FFF7BAFF2046BDE8104052
:100D80000021FFF7B4BFBE49884202D101214C04C3
:100D900010E0BC49884202D101218C040AE0BA4922
:100DA000884202D10121CC0404E0B84988420AD12A
:100DB00001210C052046FFF7A3FF2046BDE81040A7
:100DC0000021FFF79DBF10BD30B50446008A85B0F5
:100DD0000D464CF6FF710840E98801432182A08945
:100DE0004EF6F3110840A9882A8911436A89024303
:100DF0001143A181A08A4FF6FF410840A989014310
:100E0000A1826846FFF716FF9C48844201D10398EF
:100E100000E00298A189090400EBC00101EB001079
:100E2000296801D5490000E08900B0FBF1F0642297
:100E3000B0FBF2F109010B096FF018056B4300EBF1
:100E40008300A3891D044FF0320306D503EBC000D5
:100E5000B0FBF2F000F0070005E003EB0010B0FB80
:100E6000F2F000F00F000843208105B030BD4FF4D0
:100E70001651016000218180C18001810C224281D4
:100E80008181704710B5028A4FF2FF031A400B8828
:100E90004C8823438C88C9880C4323431343038223
:100EA00010BD0021018041808180C18070470029F0
:100EB000818902D041F4005101E021F40051818187
:100EC000704710B5C1F3421301F01F040121A14086
:100ED000012B07D0022B07D01430002A026805D05E
:100EE0000A4304E00C30F8E71030F6E78A4302606A
:100EF00010BD002A828A01D00A4300E08A43828220
:100F00007047028A22F00F020282028A0A4302829A
:100F10007047828922F40062828182890A43828139
:100F200070470029818902D041F0020101E021F0DF
:100F3000020181817047028A22F020020282028A25
:100F40000A43028270470029018A02D041F480419D
:100F500001E021F4804101827047C1F308018180E2
:100F600070478088C0F308007047818941F0010113
:100F700081817047028BD2B20283028B42EA012147
:100F800001837047028B02F47F420283028B0A4383
:100F9000028370470029818A02D041F0200101E0DC
:100FA00021F02001818270470029818A02D041F01E
:100FB000100101E021F01001818270470029818A2F
:100FC00002D041F0080101E021F008018182704760
:100FD0000029818902D041F4004101E0C1F30E01F2
:100FE000818170470029818A02D041F4006101E0CB
:100FF00021F4006181827047828A22F00402828299
:10100000828A0A43828270470029818A02D041F095
:10101000020101E021F002018182704702460020B6
:1010200012880A4200D001207047C94301807047EE
:1010300070B501F01F0501260024C1F3421306FA22
:1010400005F2012B0FD0022B0FD0838A4FEA11211A
:101050000088134206FA01F600EA060001D000B14A
:101060000124204670BD8389F0E7038AEEE70A0A6F
:1010700001219140C94301807047000000380140C0
:101080000044004000480040004C00400050004038
:10109000F94910B5884202D10121C41486E0B0F1AB
:1010A000804F09D0F54988420DD101210220FFF778
:1010B00027FE0021022064E001210846FFF720FE00
:1010C000002101205DE0EE49884206D10121042083
:1010D000FFF716FE0021042053E0EA49884206D1BA
:1010E00001210820FFF70CFE0021082049E0E64915
:1010F000884206D101211020FFF702FE00211020B6
:101100003FE0E249884206D101212020FFF7F8FDA7
:101110000021202035E0DE49884202D1012144141B
:1011200044E0DC49884202D10121CC043EE0DA49A6
:10113000884202D101210C0538E0D849884202D109
:1011400001214C0532E0D649884206D101214020D8
:10115000FFF7D6FD0021402013E0D249884206D196
:1011600001218020FFF7CCFD0021802009E0CE493D
:1011700088420AD1841501212046FFF7C1FD0021D4
:101180002046BDE81040FFF7BBBDC849884202D1E8
:1011900001210C040AE0C649884202D101214C0415
:1011A00004E0C44988420AD101218C042046FFF79B
:1011B0009EFD2046BDE810400021FFF798BD10BD00
:1011C00030B50288AC4CB24DA0420DD0A8420BD035
:1011D000B0F1804F08D0A94B984205D0A84B984257
:1011E00002D0A84B984203D122F070034A881A43D8
:1011F000A54B984206D0A54B984203D022F44073E9
:10120000CA881A4302808A8882850A880285A04299
:101210000AD0A84208D0A54A904205D0A44A9042DC
:1012200002D0A44A904201D1097A0186012181822B
:1012300030BD30B5028C22F001020284028C83881A
:10124000048B22F0020224F073050C882C430D89D4
:1012500015434A882A43884DA8420BD08C4DA8429A
:1012600008D0924DA84205D0914DA84202D0914D90
:10127000A8420DD122F008054A8923F440732A437D
:1012800022F004058A882A438D891D43CB892B438C
:1012900083800483C9888186028430BD70B5028C46
:1012A00022F010020284028C8388048B0D8824F4BF
:1012B000E6464FF6FF7404EA052535430E8922F011
:1012C000200204EA061616434A8804EA0212324350
:1012D000694EB04202D06E4EB04215D122F0800667
:1012E0004A8923F4406304EA0212324322F04006A2
:1012F0008A8804EA021232438E8904EA86061E4373
:10130000CB8904EA8303334383800583C98801873B
:10131000028470BD70B5028C22F480720284028C4B
:101320008388848B0D8824F0730425430E894FF63F
:10133000FF7422F4007204EA062616434A8804EA7F
:10134000022232434C4EB04202D0514EB04215D12F
:1013500022F400664A8923F4405304EA022232430D
:1013600022F480668A8804EA022232438E8904EAE3
:1013700006161E43CB8904EA031333438380858317
:10138000C9888187028470BD70B5028C22F48052B6
:101390000284058C8288838B0C8823F4E6464FF602
:1013A000FF7303EA0424344325F400560D8903EA4D
:1013B000053535434E8803EA06362E432E4DA842A6
:1013C00002D0334DA84205D122F480458A8903EA30
:1013D00082122A4382808483C988A0F84010068440
:1013E00070BD828B22F440628283828B4FF6FF7342
:1013F00003EA01210A4382837047828B22F00C02A8
:101400008283828B0A4382837047028B22F440627C
:101410000283028B4FF6FF7303EA01210A43028322
:101420007047F0B5048C24F010040484078B048CFE
:101430004FF6FF7527F4734705EA03333B4305EA8C
:1014400002221A430C4B05EA011698420ED0104BAB
:1014500098420BD0B0F1804F08D0084B984205D08D
:10146000074B984202D0074B984225D124F0200127
:10147000314341F0100124E0002C01400004004001
:1014800000080040000C0040001000400014004024
:1014900000340140004C0140005001400054014024
:1014A00000180040001C00400020004000400140A7
:1014B000004401400048014024F0A0030B4343F0E6
:1014C000100102830184F0BD028B22F00C02028322
:1014D000028B0A430283704770B5048C24F0010428
:1014E0000484058B048C4FF6FF7606EA031313433E
:1014F00025F0F305F84A2B4390420ED0F74A90426C
:101500000BD0B0F1804F08D0F54A904205D0F54A93
:10151000904202D0F44A904202D124F0020201E04B
:1015200024F00A020A4342F001010383018470BDE2
:101530002DE9F84F0D4604460888E74FDFF89CC3B5
:10154000DFF89C83DFF89C934988AA882B894FF0A9
:10155000804A48B304282FD04FF6FF7608289346D8
:1015600032D0208C9E4620F480502084A38B208C87
:1015700006EA0132009223F4734306EA0B221A436F
:1015800006EA0E331343BC420AD0644508D05445E2
:1015900006D0444504D04C4502D0D34A944242D1AF
:1015A00020F40050009940E02046FFF795FFE988BD
:1015B0002046BDE8F84F87E72046FFF732FFE9886D
:1015C0002046BDE8F84F20E7208C20F4807020846E
:1015D000B4F81CE0208C06EA031306EA01222EF080
:1015E000F30E43EA0B0343EA0E030092BC420AD017
:1015F000644508D0544506D0444504D04C4502D03B
:10160000B94A944203D120F40070009901E020F41B
:101610002060084340F48070A3832084E98820463A
:10162000BDE8F84FE9E620F40240084340F480505A
:10163000A3832084E9882046BDE8F84FD1E62DE950
:10164000F0410C46002649880746012501B90226CB
:10165000A288012A00D10225208823890028384643
:1016600010D0FFF7DEFEE1883846FFF7CEFE238973
:101670002A4631463846FFF72FFFE1883846BDE855
:10168000F04121E7FFF728FFE1883846FFF71CFF0C
:1016900023892A4631463846FFF7C3FEE18838469B
:1016A000BDE8F041B1E610B50A884B88CC881A43F2
:1016B0008B8823431A430B891A434B8989891A4320
:1016C0000A43A0F8442010BD4FF6FF71818000212D
:1016D0000180C180418001727047002101804180FA
:1016E0008180C180018141818181C1817047002158
:1016F0000180418001228280C180018170470021E8
:10170000018041808180C180018141818181704758
:101710000029018802D041F0010101E021F001011E
:1017200001807047002930F8441F02D041F4004185
:1017300001E0C1F30E0101807047002A828901D0C7
:101740000A4300E08A4382817047818270471143D7
:10175000A0F848107047002A828901D00A4300E0AF
:101760008A4382817047018921F007010181704716
:10177000028922F070020A430281704700B50346D5
:10178000FFF7F6FF188940F00700188100BD70B51B
:1017900016460D46602904464FF0010231460AD034
:1017A000FFF79AFE29462046FFF7E2FF208940F026
:1017B0000700208170BDFFF734FEF3E730B50489E0
:1017C0004FF6FF7505EA03231343E4B20B432343AB
:1017D000038130BD10B50446FFF7F0FF208940F0CB
:1017E0007700208110BD10B50446FFF7E7FF208980
:1017F00040F48040208110BD0185828270470288BC
:1018000022F070020A430280704770B50589048B8C
:10181000068C25F007050D434FF6FC410C4040F2C5
:1018200001110C434FF6FF7101EA031126F0220665
:101830001143314305810483018470BD028B22F082
:1018400070020A4302837047028B4FF6FF7322F443
:10185000E04203EA0121114301837047828B22F0A9
:1018600070020A4382837047828B4FF6FF7322F423
:10187000E04203EA01211143818370470029018876
:1018800002D041F0800101E021F080010180704729
:101890000029818802D041F0040101E021F0040117
:1018A000818070470029818802D041F0080101E061
:1018B00021F00801818070470029818802D041F021
:1018C000010101E021F0010181807047028B22F0CB
:1018D00008020A4302837047002C01400034014093
:1018E0000004004000080040000C0040028B4FF64E
:1018F000FF7322F4006203EA012111430183EAE746
:10190000828B22F008020A438283E4E7828B4FF63F
:10191000FF7322F4006203EA012111438183DAE7B5
:10192000028B22F004020A430283D4E7028B4FF6B3
:10193000FF7322F4806203EA012111430183CAE7A5
:10194000828B22F004020A438283C4E7828B4FF623
:10195000FF7322F4806203EA012111438183BAE715
:10196000028B22F080020A430283B4E7028B4FF617
:10197000FF73C2F30E0203EA012111430183AAE7B8
:10198000828B22F080020A438283A4E7828B4FF687
:10199000FF73C2F30E0203EA0121114381839AE728
:1019A000028C22F002020A43028494E7028C22F0A5
:1019B00008020A4302848EE7028C4FF6FF7322F07E
:1019C000200203EA01111143018484E7028C4FF6DF
:1019D000FF7322F0800203EA0111114301847AE7C8
:1019E000028C4FF6FF7322F4007203EA01211143C7
:1019F000018470E7028C4FF6FF7322F4006203EA61
:101A000001211143018466E7028C4FF6FF7322F433
:101A1000005203EA0131114301845CE710B5012350
:101A2000048C8B409C430484038C8A4013430384BE
:101A300010BD10B50423048C8B409C430484038C9C
:101A40008A401343038410BD30B50124058C00F196
:101A500018038C40A543058489B108290FD0091FBC
:101A6000C1F34E001844016821F4E04101600168AF
:101A70004FF6FF7303EA02221143016030BD03EB0E
:101A80005100016821F0700101600168F4E700294C
:101A9000018802D041F0020101E021F00201018041
:101AA00019E70029018802D041F0040101E021F08A
:101AB000040101800FE70029818802D041F08001F4
:101AC00001E021F08001818005E7028822F0080210
:101AD000028002880A430280FDE6828822F07002BA
:101AE000828082880A438280F5E6028922F007021A
:101AF000028102890A430281EDE6028922F0800216
:101B0000028102890A430281E5E68184E3E6818558
:101B1000E1E68186DFE60187DDE68187DBE6A0F886
:101B20004010D8E6028822F44072028002880A43FC
:101B30000280D0E6808ECEE6008FCCE6808FCAE6AB
:101B4000B0F84000C7E6808CC5E6008DC3E60246CB
:101B50000020128A0A4200D00120BCE6C94301825B
:101B6000B9E602460020138A92890B4202EA01027A
:101B700002D0002A00D00120ADE6C9430182AAE6C6
:101B800000F108014FF0FF32C0E90112C1600161AC
:101B900000210160704700210161704742684A607E
:101BA00093688B6093685960916008610168491C73
:101BB0000160704730B50C68621C02D000F1080269
:101BC00002E0026904E01A4653681D68A542FAD98A
:101BD00053684B6099608A60516008610168491CD4
:101BE000016030BDD0E9013201699A60D0E901237A
:101BF0005A604A68824201D182684A6000220261CA
:101C00000868401E0860704770B50D46040005D195
:101C100040F21B12F2A1F7A002F006FC02F06CFAEF
:101C2000D4E90F20216802FB001161600021A1634B
:101C30002168A1600A46D4E90F01401E00FB012182
:101C4000E16021464FF0FF3001F8440F487004F185
:101C500010004DB1FFF794FF04F12400FFF790FF4F
:101C600002F064FA012070BD21690029F8D001F06A
:101C7000BAFA0028F4D0E3494FF080500860BFF36F
:101C80004F8FBFF36F8FEBE72DE9F04117460E46FC
:101C9000050005D14FF4C472D1A1D6A002F0C4FB57
:101CA000BEB105FB06F0543002F0D6FA04000ED0A7
:101CB00004F154007EB12060C4E90F562046012192
:101CC000FFF7A2FF84F8507000212046A164BDE810
:101CD000F0810020E7E72460EEE72DE9F041856B15
:101CE000174604460026026C82B1C7B1E06802F0D4
:101CF00098FCE168206C091AE1602268914202D2E6
:101D00006168081AE060022F16D017E02068A8B9B1
:101D1000606801F084FB0646002060600EE0A06869
:101D200002F07FFC216CA0680844A06061688842D2
:101D300004D32068A06001E005B16D1E6D1CA56391
:101D40003046C4E72DE9F3410F4600980026846C25
:101D50002CB940F6CE12A2A1A6A002F065FBA06BA2
:101D6000E16B884205D340F6CF129DA1A1A002F0FD
:101D70005BFBA06BE16B88420CD294F945503A466C
:101D800069462046FFF7A9FF0646681C05D06D1C72
:101D900084F845503046BDE8FC81606A0028F9D0DF
:101DA00004F1240001F01FFA0028F3D00126F1E726
:101DB0002DE9F041044602F09FF994F9455004F1F1
:101DC000240610E0A06C20B100212046FFF7BAFFE6
:101DD00004E0606A48B1304601F005FA08B101F04C
:101DE000C6FA6D1E6DB2002DECDC4FF0FF3684F8A4
:101DF000456002F09BF902F07FF994F9445004F138
:101E0000100709E0206948B1384601F0ECF908B143
:101E100001F0ADFA6D1E6DB2002DF3DC84F8446064
:101E2000BDE8F04102F082B92DE9FF4F83B0994639
:101E30008B4604004FF0000605D140F2D92268A17C
:101E40006CA002F0F1FABBF1000F07D1206C28B1B1
:101E500040F2DA2262A167A002F0E6FAB9F1020FBD
:101E600008D1E06B012805D040F2DB225CA161A023
:101E700002F0DAFA01F08AFA38B9059828B140F28E
:101E8000DE2257A15BA002F0CFFA4FF0000A4FF01C
:101E90008057DFF8708102F02FF9A06BE16B884268
:101EA00006D3B9F1020F03D0059800B316B325E0AD
:101EB0004A4659462046FFF710FFA16C21B149461A
:101EC0002046FFF73FFF05E0616A19B104F12400E5
:101ED00001F089F928B1C8F80070BFF34F8FBFF344
:101EE0006F8F02F023F9012007B0BDE8F08F02F0F8
:101EF0001DF921E0684601F0E7F9012602F016F924
:101F000000F09BFD02F0F8F894F94400401C01D168
:101F100084F844A094F94500401C01D184F845A000
:101F200002F004F905A9684601F0EEF930B1204647
:101F3000FFF73EFF00F0F3FC0020D5E702F0DCF8ED
:101F4000A06BE16B884201D1012500E0002502F081
:101F5000EDF895B104F11000059901F0E7F820467D
:101F6000FFF726FF00F0DBFC002894D1C8F80070D2
:101F7000BFF34F8FBFF36F8F8DE72046FFF718FF3A
:101F800000F0CDFC87E710B5024600210120FFF7E5
:101F90007BFE041E07D00021416001600B460A460B
:101FA000C160FFF741FF204610BD10B5040005D108
:101FB00040F241220AA10FA002F036FA01F0E3F943
:101FC0006168884220D1E068401EE06005D10023AE
:101FD0001A4619462046FFF727FF012010BD0000D2
:101FE0002E2E5C4672656552544F535C7175657553
:101FF000652E63004572726F723A25732C25640D4D
:102000000A00000004ED00E00020E7E730B4026CB5
:102010000B46002A0BD0C1681144C1604468A1423C
:1020200001D30168C16030BC184602F0FABA30BC76
:1020300070472DE9FF4F83B09B468A4604004FF05E
:10204000000607D140F2DC42AFF26C01AFF25C0057
:1020500002F0EAF9BAF1000F09D1206C38B140F270
:10206000DD42AFF28401AFF2740002F0DDF901F05D
:102070008DF948B9059838B14FF49C62AFF2A001D0
:10208000AFF2900002F0D0F94FF000094FF0805706
:10209000DFF8188602F030F8A56B35B351462046BC
:1020A000E668FFF7B3FFBBF1000F11D0E660606A8E
:1020B00050B104F1240001F096F828B1C8F800707E
:1020C000BFF34F8FBFF36F8F02F030F801200BE7A3
:1020D0006D1EA563206810B901F08EFA606020695A
:1020E0000028F1D004F11000E5E7059808B11EB111
:1020F00006E002F01BF827E0684601F0E5F801264B
:1021000002F014F800F099FC01F0F6FF94F9440095
:10211000401C01D184F8449094F94500401C01D141
:1021200084F8459002F002F805A9684601F0ECF841
:10213000002820460AD0FFF73BFE00F0F0FB2046C7
:1021400000F0A6FA0028A5D00020CDE600F0A0FA05
:10215000D8B1206830B901F0CFFF606801F021F9F3
:1021600001F0E4FF04F12400059900F0DFFF2046B0
:10217000FFF71EFE00F0D3FB00288BD1C8F80070DB
:10218000BFF34F8FBFF36F8F84E72046FFF710FE3A
:1021900000F0C5FB7EE770B50D46040007D14FF493
:1021A0001E72AFF2C411AFF2B41002F03DF901F0AB
:1021B000EAF86168884204D1E068401CE0600120D0
:1021C00070BD00232A4619462046FFF732FF00283B
:1021D000F6D0E168491CE16070BD70B50C460500A1
:1021E00007D140F2BD22AFF20821AFF2F81002F0A1
:1021F0001BF9AC4207D940F2BE22AFF21C21AFF26C
:102200000C2002F011F9022200212846FFF73CFDC4
:10221000002800D0846370BD2DE9F047984615462C
:102220008946040007D140F29F32AFF24C21AFF251
:102230003C2002F0F9F8B9F1000F09D1206C38B157
:102240004FF46872AFF26821AFF2582002F0ECF858
:10225000B8F1020F0AD1E06B012807D040F2A13299
:10226000AFF28421AFF2742002F0DEF801F083FFB8
:102270005020EFF3118780F31188BFF34F8FBFF326
:102280006F8FA06BE16B884207D3B8F1020F04D0C7
:10229000002087F31188BDE8F08794F94560424635
:1022A00049462046FFF719FD701C04D0761C84F8BF
:1022B00045600120EDE7A06C012620B14146204693
:1022C000FFF740FD06E0606A0028F2D004F1240028
:1022D00000F089FF0028ECD0002DEAD02E60E8E75E
:1022E0002DE9F0410D46040007D140F23C42AFF227
:1022F0001031AFF2003002F097F8206C38B14FF493
:102300008862AFF22431AFF2143002F08DF8206809
:1023100048B9606838B140F24542AFF23C31AFF2A3
:102320002C3002F081F801F026FF5020EFF31186E7
:1023300080F31188BFF34F8FBFF36F8FA16BE06BFA
:1023400088421FD994F94500491CA163411C04D05F
:10235000401C84F84500012015E0A06C012720B145
:1023600000212046FFF7EEFC06E0606A0028F2D06C
:1023700004F1240000F037FF0028ECD0002DEAD053
:102380002F60E8E7002086F31188A0E42DE9F047EC
:1023900090468946040007D14FF4B462AFF2C031D1
:1023A000AFF2B03002F040F8B9F1000F09D1206C63
:1023B00038B140F2A152AFF2D831AFF2C83002F0DA
:1023C00033F801F0D8FE5020EFF3118780F3118825
:1023D000BFF34F8FBFF36F8FA66BF6B194F94450E4
:1023E00049462046FFF712FE761EA663681C04D0FD
:1023F0006D1C84F84450012010E020690028FAD0B8
:1024000004F1100000F0EFFE0028F4D0B8F1000F46
:10241000F1D00121C8F80010EDE7002087F3118802
:1024200039E72DE9F0410E46040007D140F2FC5295
:10243000AFF25441AFF2444001F0F6FF4EB9206CC8
:1024400048B140F2FD52AFF26841AFF2584001F09E
:10245000EBFF206C38B940F2FE52AFF27C41AFF294
:102460006C4001F0E1FF01F086FE5020EFF3118592
:1024700080F31188BFF34F8FBFF36F8FA06B30B124
:1024800031462046E768FFF7C1FD0120E76085F38C
:1024900011881CE410B5040007D140F22F62AFF29E
:1024A000C041AFF2B04001F0BFFF01F025FEA46BC8
:1024B00001F03CFE204691E510B5040007D140F242
:1024C0004162AFF2E441AFF2D44001F0ADFF01F060
:1024D00013FED4E90E10441A01F028FE20467DE5D3
:1024E00010B5040007D140F25162AFF20C51AFF2C7
:1024F000FC4001F099FFA06B70E56D4A002102EBF2
:10250000C1035B68834206D1002042F8310002EB30
:10251000C10148607047491C0829F0D3704710B5C5
:10252000040007D140F25D62AFF24C51AFF23C5073
:1025300001F07AFF2046FFF7E0FF2046BDE810409B
:1025400001F0F5BEC06C7047C164704790F8500050
:10255000704710B5040007D140F29372AFF280517A
:10256000AFF2705001F060FFA06B08B1002035E5BC
:10257000012033E510B5040007D140F2BA72AFF282
:10258000A051AFF2905001F04FFFA06BE16B884279
:1025900001D1012022E5002020E510B5444B0022A6
:1025A00053F832401CB1521C082AF9D316E543F8FF
:1025B000321003EBC201486010E510B500243C4A1C
:1025C000214602EBC1035B68834202D152F83140DD
:1025D00002E0491C0829F4D32046FFE470B51546F3
:1025E0000E46044601F088FD94F944100020491C71
:1025F00001D184F8440094F94510491C01D184F8B4
:10260000450001F093FDA06B28B92A46314604F13C
:10261000240000F0CBFD2046BDE87040FFF7C8BBAA
:1026200000220421FFF730BB70B50D46044601F0CF
:1026300063FDA06C08B9A06B08B1002401E0A5649B
:10264000012401F073FD204670BD10B50446806C76
:10265000884201D1A06B08B10020BFE401F04CFD1D
:102660000020A06401F062FD0120B7E408B500235A
:102670000A4669460093FFF7DCFC009808BD08B5E0
:1026800000210A4600916946FFF780FE009808BDC8
:1026900010B5044601F030FDA06B20B1002401F01C
:1026A00045FD20469AE40124F9E7000004ED00E02E
:1026B000940100202DE9F041054601F01DFDFE4E7C
:1026C000B068401CB0603068FC4F10B1706930B326
:1026D0002BE03560B068012827D1002404EB84008A
:1026E00007EB8000FFF74CFA641C202CF6D3F4486B
:1026F000FFF746FAF2481430FFF742FAF048283064
:10270000FFF73EFAEE483C30FFF73AFAEC4850301B
:10271000FFF736FAEA48F0631430306405E03068B9
:10272000E96AC06A884200D83560706A0121401C9D
:102730007062A864E86A326981401143316100EB3C
:10274000800007EB8000291DFFF728FA01F0EEFC5E
:10275000706900280CD03068E96AC06A884207D2E4
:10276000D8494FF080500860BFF34F8FBFF36F8F91
:10277000BDE8F0812DE9FF5F8346DDE90E879946CC
:1027800016468A46900001F067FD05001AD06420C5
:1027900001F062FD040012D025630021CDE9024161
:1027A000CDE900874B4632465146584601F0F2F8D3
:1027B0002046FFF77FFF012004B0BDE8F09F2846C8
:1027C00001F0B5FD4FF0FF30F6E770B5044601F0BB
:1027D00093FCB94D04B92C68201DFFF703FA58B9D2
:1027E000E06AB64A00EB800152F8211021B90121BC
:1027F0008140286988432861A06A18B104F1180053
:10280000FFF7F0F9686A401C68622868844208D1C2
:10281000AB48211D3C30FFF7C1F96868401C686077
:1028200007E0A868401EA860204601F00DF901F0FD
:10283000FEF801F07BFC6869002812D02868844209
:102840000FD1286B28B140F265429FA1A3A001F0EF
:10285000EBFD9C494FF080500860BFF34F8FBFF3F2
:102860006F8F70BD2DE9F041934F0026386B38B162
:10287000B869401CB861F86900B10126304677E7B5
:10288000FD686D1CFD6011D1F86B006828B140F641
:10289000D9128DA191A001F0C7FDF86B396CF963D5
:1028A0003864386A401C386201F0C1F8B86ADFF851
:1028B0000C82854209D3F86B006880B1F86BC06860
:1028C000C468606885420DD2B8623868C06A00EB9F
:1028D000800158F821000128CDD90126CBE74FF01F
:1028E000FF30F1E7201DFFF77DF9A06A18B104F170
:1028F0001800FFF777F9E06A01213A698140114336
:10290000396100EB800108EB8100211DFFF746F9DA
:10291000E06A3968C96A8842CDD30126CBE72DE940
:10292000F047654D00242746286B28B94FF4FD6217
:1029300065A16AA001F078FD01F0DEFB286B401E66
:102940002863286BF0BBA8685D4928310126C8B30D
:10295000DFF868918846D8F80010E9B1D8F80C0083
:10296000C46804F11800FFF73DF9201DFFF73AF99C
:10297000E06A2A6906FA00F11143296100EB80013F
:1029800009EB8100211DFFF709F9E06A2968C96A8E
:102990008842E0D3EE61DEE70CB101F048F8AC69A3
:1029A0003CB1FFF75FFF00B1EE61641EF9D100207A
:1029B000A861E86930B14349012738070860BFF3CF
:1029C0004F8F00E001E0BFF36F8F01F0AFFB38469F
:1029D000BDE8F0872DE9F041374E0F460446F56813
:1029E0003068001DFFF7FEF838B9306890F82C10F9
:1029F00001208840316981433161601C08D13FB1B9
:102A00003168BDE8F0412E485030091DFFF7C6B8C7
:102A100030682C44AC424460316805D2306CBDE86B
:102A2000F041091DFFF7C6B8F06B091DFFF7C2F8AA
:102A3000B06A844200D2B4629AE61F48016B491C16
:102A4000016370472DE9F0410E4605004FF0000488
:102A500005D140F279421CA120A001F0E5FC2EB97D
:102A600040F27A4218A11DA001F0DEFC124F386B33
:102A700028B140F27B4214A118A001F0D5FCFFF769
:102A8000DCFFFA6828688119904202D9884202D88E
:102A900004E0884201D8914200D9012429601CB188
:102AA000881A0021FFF796FFFFF739FF002822D18F
:102AB0004FF08050034919E050000020D40100205D
:102AC0005404002004ED00E02E2E5C467265655231
:102AD000544F535C7461736B732E63004572726F55
:102AE000723A25732C25640D0A0000000860BFF3BC
:102AF0004F8FBFF36F8F3BE610B5040014D0F7493A
:102B0000096B39B140F2CF42AFF24401AFF2340069
:102B100001F08AFCFFF791FF00212046FFF75AFFE2
:102B2000FFF7FDFE002807D1ED494FF08050086007
:102B3000BFF34F8FBFF36F8F10BD70B5050007D186
:102B400040F2FB42AFF28001AFF2700001F06CFC8A
:102B5000E24E3068854201D1002070BD01F0CCFA10
:102B60006C6901F0E3FAF06B844202D0306C84426D
:102B700001D1022070BDDB48844204D1A86A00283C
:102B8000F7D1032070BDD7481438844202D00CB16D
:102B9000012070BD042070BD10B5044601F0ACFAF0
:102BA0000CB9CE480468E46A01F0C0FA204610BDB2
:102BB00010B5044601F0DFFA5020EFF3118180F3E5
:102BC0001188BFF34F8FBFF36F8F0CB9C3480468F0
:102BD000E06A81F3118810BD2DE9F04100260D4611
:102BE0000446202908D34FF4B062AFF22411AFF2AB
:102BF000141001F019FC1F2501F07EFAB74F04B93B
:102C00003C68206DA8423FD03968854206D98C4285
:102C100007D03968C96AA94202D902E08C4200D1C2
:102C20000126E16A8846884200D1E5622565A069EF
:102C3000002802DBC5F12000A061AB4D08EB880045
:102C4000616905EB8000814215D1201DFEF7CAFFA6
:102C5000012120B93A6901FA08F082433A61E06A39
:102C60003A6981401143396100EB800005EB800037
:102C7000211DFEF793FF3EB199494FF08050086047
:102C8000BFF34F8FBFF36F8FBDE8F04101F04EBA35
:102C900070B5924C206B10B10120E06170BD002036
:102CA000E061924908684968A063626B904204D968
:102CB0002168821A8B6D1A448A65606320698A4E86
:102CC000B0FA80F0C0F11F0000EB800556F8250037
:102CD00038B940F6F622AFF21021AFF2002001F031
:102CE000A3FB06EB850000F10802416849684160DA
:102CF000914201D149684160C868206070BD70B5DB
:102D0000044601F0F9F9754D04B92C68201DFEF751
:102D100069FF58B9E06A744A00EB800152F821104B
:102D200021B901218140286988432861A06A18B12E
:102D300004F11800FEF756FF211D6A48FEF72EFF2A
:102D400001F0F4F9686928B101F0D6F900F06FFEDE
:102D500001F0ECF92868844213D1686990B1286BBE
:102D600038B140F25762AFF2A021AFF2902001F0EB
:102D70005BFB5B494FF080500860BFF34F8FBFF3A0
:102D80006F8F70BD5748A9680068884202D1002043
:102D9000286070BDBDE870407AE770B5002504007A
:102DA00007D140F28162AFF2E021AFF2D02001F012
:102DB0003BFB4C496069884205D1A06A28398842AA
:102DC00001D000B90125284670BD70B504002BD094
:102DD000424D2868844231D001F08EF92046FFF739
:102DE000DCFFE8B1201DFEF7FDFEE06A01212A6943
:102DF0008140114329613C4900EB800001EB8000D8
:102E0000211DFEF7CBFEE06A2968C96A884207D314
:102E100033494FF080500860BFF34F8FBFF36F8F7F
:102E2000BDE8704001F082B940F2AB62AFF26831A8
:102E3000AFF25830BDE8704001F0F6BA70BD2DE930
:102E4000F0410026040007D140F2E262AFF288317F
:102E5000AFF2783001F0E8FA01F08DF95020EFF38D
:102E6000118580F31188BFF34F8FBFF36F8F20461A
:102E7000FFF793FFF0B1194F386B20B1194804F1F7
:102E80001801283814E0E06A3968C96A884200D31A
:102E90000126201DFEF7A6FEE06A01213A69814065
:102EA00011433961104900EB800001EB8000211DC6
:102EB000FEF774FE85F31188304659E40A4E4FF050
:102EC0008054074D00F0CAFD30680128FAD92C6003
:102ED000BFF34F8FBFF36F8FF4E700005000002067
:102EE00004ED00E0A4040020D4010020280000200C
:102EF0001CB5FE480024CDE9004023468222FCA1F7
:102F0000FD48FFF737FC012803D100F0D6FE012869
:102F10000CD0401C1FD140F28472AFF25441AFF28A
:102F2000444002B0BDE8104001F07EBA502080F36A
:102F30001188BFF34F8FBFF36F8FEC484FF0FF3115
:102F40002C38816201214161C460FDF7EFFABDE8D0
:102F50001C4001F08FB81CBD502080F31188BFF3D6
:102F60004F8FBFF36F8FE14900202C39486101F08A
:102F7000B7B8DE482C38C068704710B501F0FBF8D0
:102F8000DA482C38C06810BDD8482C3880687047A3
:102F900010B510B1044624B10BE0D4482C380468B5
:102FA000F9E740F68C02AFF2E041AFF2D04001F019
:102FB0003BFA04F1340010BD2DE9F0411E46904665
:102FC0000C4607000ED0054605F13400C4E9005058
:102FD000E86A2061286BE061A86CA060207B032870
:102FE00004D00BE0C1482C380568EDE7FFF725FD5C
:102FF000A86A08B102202073FFF791FC286D606178
:10300000A86DA061052E01D0267303E03846FFF7B6
:1030100094FD2073B8F1000F0AD00021286B01E065
:10302000401C491C0278A52AFAD08808208426E48E
:103030000020FBE72DE9F0478146086892460C46E0
:103040000025F8B1486801F1080640684860B042C0
:1030500001D140684860D0F80C80606842686260C6
:10306000B24201D151686160606805EBC50109EBAE
:103070008101C768534601223846FFF79DFF6D1C4A
:103080004745EAD12846A3E42DE9F04717460A460A
:10309000064600242025FFF7D0FCDFF85082A8F177
:1030A0002C08D8F8080082423CD3DFF850926D1EFD
:1030B00005EB850104EBC40009EB810106EB800000
:1030C0000122FFF7B7FF0444002DF0D104EBC40048
:1030D00006EB800002224546D8F83C10FFF7AAFF15
:1030E000044404EBC40006EB80000222296CFFF7C5
:1030F000A1FF044404EBC40006EB800004228049D5
:10310000FFF798FF04447E4904EBC40006EB8000FF
:1031100003221431FFF78EFF04441FB17948016880
:1031200040683960FFF7FBFB204651E470B50D465F
:10313000040007D140F60632AFF27461AFF264606A
:1031400001F072F969482C38016820461831FEF701
:1031500031FD2846BDE8704001213BE42DE9F041F6
:1031600017460E46050007D140F61732AFF2A861A8
:10317000AFF2986001F058F95C4C2C3C206B38B9E8
:1031800040F61B32AFF2C061AFF2B06001F04CF913
:10319000216846F000408861216828461831FEF712
:1031A000FDFC3846BDE8F041012113E470B514463A
:1031B0000E46050007D140F63132AFF2F461AFF2AE
:1031C000E46001F031F949482C380168284618318B
:1031D000FEF7E4FC0CB14FF0FF3621463046BDE867
:1031E0007040FFF7F7BB2DE9F041C068C4683CB9F7
:1031F00040F66132AFF23071AFF2207001F014F995
:1032000004F118000746FEF7EDFC384D2C3D286B05
:10321000012660B13A4839461438FEF7BFFCE06A2F
:103220002968C96A884212D90120EE6104E4201D90
:10323000FEF7D8FCE06A2A6906FA00F11143296119
:103240002E4900EB800001EB8000211DE5E7002006
:1032500051E470B5254D06462C3D0C46286B38B917
:1032600040F69932AFF2A071AFF2907001F0DCF845
:1032700044F000403060F4683CB940F6A132AFF24F
:10328000B871AFF2A87001F0CFF83046FEF7AAFC93
:10329000201DFEF7A7FCE06A01262A6906FA00F164
:1032A00011432961154900EB800001EB8000211DCD
:1032B000FEF774FCE06A2968C96A884202D90120D5
:1032C000EE6170BD002070BD10B5040007D140F65E
:1032D000C132AFF60C01AFF2FC7001F0A5F8034863
:1032E0002C38016A2160C068606010BD7C0000203D
:1032F00049444C4500000000BD2E0008D4010020C8
:10330000900400202800002070B50D46040007D16D
:1033100040F6CB32AFF65001AFF6400001F084F832
:103320003DB940F6CC32AFF66001AFF6500001F087
:103330007BF800F0E1FEFC4AD06829684B1C0FD0F6
:103340002368126A934202D0626882420AD9626894
:10335000801A884206D2081A28602046FFF7B4FF78
:10336000002400E0012400F0E1FE204670BDEE499B
:103370000120C8617047002800D0C06C7047002849
:1033800000D0C1647047E84800687047E64841696A
:1033900019B1006B18B1002070470120704702205E
:1033A000704770B5040039D0DF4DE06A2968C96AFA
:1033B000884233D2A069002804DB2868C06AC0F1C3
:1033C0002000A061E06AD94E00EB8000616906EB45
:1033D000800081421FD1201DFEF704FC012150B95D
:1033E000E06A00EB800256F8222022B92A6901FA2D
:1033F00000F082432A612868C06AE0622A6981403D
:103400001143296100EB800006EB8000211DBDE81F
:103410007040FEF7C3BB2868C06AE06270BD70B53B
:1034200004004FF0000640D0BF4D2868844207D00A
:1034300040F6C762AFF67011AFF6601000F0F4FF0F
:10344000606D38B940F6C962AFF68411AFF67410FA
:1034500000F0EAFF606D401E6065226DE16A9142F6
:1034600023D010BB201DFEF7BDFBB049012250B98F
:10347000E06A00EB800351F8233023B92B6902FA8C
:1034800000F083432B61206DE062C0F12000A06159
:10349000E06A2B6982401A432A6100EB800001EB4D
:1034A0008000211DFEF77AFB0126304670BD7FB5F6
:1034B0000024064604709C4881680291806800EBF5
:1034C000C000800000F0C8FE050041D00022029933
:1034D000FFF7DAFDCDE90204204628E000EBC0004A
:1034E00005EB8000017B01292AD002292AD003297B
:1034F0002AD004292AD000244168304600F0D4FAAA
:103500000646039800EBC00005EB80008268018C42
:10351000CDE900120369224685A1304600F090FFF4
:10352000304601F05FF806440398401C039002996E
:103530008842D3D304B02846BDE8704000F0F7BEFF
:103540005224D9E74224D7E75324D5E74424D3E7CC
:103550007FBDFEB500250646057073488168019160
:10356000806800EBC000800000F076FE040038D0D8
:1035700002AA0199FFF788FD019002986421B0FB2F
:10358000F1F0029050B32846009524E000EBC00013
:1035900004EB8000029A8169B1FBF2F54168304684
:1035A00000F082FA0646009800EBC00004EB8000B1
:1035B00082692DB12B4662A1304600F041FF03E045
:1035C00062A1304600F03CFF304601F00BF80644A3
:1035D0000098401C009001998842D7D3204600F003
:1035E000A6FEFEBD504908680A688069D26A09686B
:1035F000C2F120028A6170474B49086818B1086817
:10360000426D521C42650868704770B50C4606460C
:1036100000F072FD444D2868C06D80B92968012012
:1036200081F860005CB101212046FFF7D3F94A49D7
:103630004FF080500860BFF34F8FBFF36F8F00F0E3
:1036400075FD00F059FD2868C46D002034B116B135
:103650002968C86502E02A68611ED165296881F879
:10366000600000F063FD204670BD2DE9F0411E466C
:1036700015468846074600F03FFD2B4C206890F821
:103680006000022814D02068C16DB943C16521686B
:10369000012081F860005EB101213046FFF79AF900
:1036A0002D494FF080500860BFF34F8FBFF36F8FED
:1036B00000F03CFD00F020FD15B12068C06D2860D1
:1036C000206890F8600001280DD02068C16D21EAC3
:1036D0000801C16501252168002081F8600000F023
:1036E00025FD2846A3E40025F5E72DE9F0411F4616
:1036F00090460D4604004FF0010607D141F2FD024D
:10370000AFF63C41AFF62C4000F08EFE00F0F4FC2A
:103710000FB1E06D386094F86000022184F8601009
:10372000B8F1050F29D219E050000020D401002083
:103730000925630925750925750925750D0A0000F8
:103740000925750909257525250D0A00092575091D
:10375000093C3125250D0A0004ED00E0DFE808F002
:103760000D03060C0A00E16D294301E0E16D491CDF
:10377000E16502E0022803D0E565012802D02AE0D5
:10378000002628E0201DFEF72DFAD04DE06A012129
:103790002A69814011432961CD4900EB800001EB8A
:1037A0008000211DFEF7FAF9A06A38B141F2351206
:1037B000AFF6EC41AFF6DC4000F036FEE06A296877
:1037C000C96A884207D9C3494FF080500860BFF3E7
:1037D0004F8FBFF36F8F00F0A9FC304627E42DE92F
:1037E000F0471F46DDF8209092460D4604004FF04A
:1037F000010807D141F26812AFF63451AFF62450F8
:1038000000F012FE00F0B7FC5020EFF3118680F3B9
:103810001188BFF34F8FBFF36F8F0FB1E06D38602A
:1038200094F86000022184F86010BAF1050F0ED2FE
:10383000DFE80AF00D03060C0A00E16D294301E000
:10384000E16D491CE16502E0022803D0E56501282D
:1038500003D031E04FF000082EE0A06A38B141F209
:10386000AF12AFF69C51AFF68C5000F0DDFD974DD6
:10387000286B012778B104F118019748FEF78EF9FB
:10388000E06A2968C96A884216D9B9F1000F12D0D6
:10389000C9F8007010E0201DFEF7A4F9E06A2A695B
:1038A00007FA00F11143296100EB8001884800EB21
:1038B0008100211DE2E7EF6186F31188404634E480
:1038C0002DE9F0418846040007D141F2E312AFF63A
:1038D0000861AFF6F85000F0A7FD00F04CFC502056
:1038E000EFF3118780F31188BFF34F8FBFF36F8F12
:1038F00094F86000022184F86010E16D491CE165D4
:1039000001282ED1A06A38B141F20922AFF64861F0
:10391000AFF6386000F088FD6C4D286B012678B159
:1039200004F118016C48FEF739F9E06A2968C96AA0
:10393000884216D9B8F1000F12D0C8F8006010E024
:10394000201DFEF74FF9E06A2A6906FA00F11143DB
:1039500029615F4900EB800001EB8000211DE2E757
:10396000EE6187F3118861E410B558B1044600F0A8
:10397000C3FB94F86000022807D0002400F0D6FBB7
:103980002046B2E451480468F1E7002084F8600062
:103990000124F3E72DE9F0470E46DDE909841746D7
:1039A000824691009946089DA522206B00F07EFE7C
:1039B0006FF00301206B01EB8701084420F007073B
:1039C000780705D040F22B3244A149A000F02CFD2D
:1039D00000202218315C82F83410315C11B1401C97
:1039E0001428F6D3002684F84760202D00D31F2525
:1039F000E562C4E91456201DFEF7CDF804F1180065
:103A0000FEF7C9F82461C5F120006462A061A665D3
:103A1000E66584F860604A465146384600F00DFB82
:103A20002060B8F1000F01D0C8F8004047E72748F0
:103A3000C16B096829B1C16BC968C96849688162ED
:103A400070474FF0FF31FAE710B50446006B00F005
:103A50006EFC2046BDE8104000F069BC70B51E4EFB
:103A60001A4D14361CE0FEF7E8FF306820B1002440
:103A7000FEF755FFA4B901E00124F9E700F03CFB93
:103A8000F068C468201DFEF7ADF8A868401EA86065
:103A90006868401E686000F049FB2046FFF7D4FFCD
:103AA00068680028DFD170BD10B5044600F076FDCF
:103AB000204600F097FD202101E02154401C1328EE
:103AC000FBD30021215420440FE4000050000020CB
:103AD000D401002004ED00E07C0400202E2E5C4682
:103AE00072656552544F535C7461736B732E63003F
:103AF0004572726F723A25732C25640D0A0000001E
:103B000070B500244160F74D0061914206D8D11A8A
:103B10008269914206D2011D286907E09A4203D2C8
:103B2000994201D3012403E0011DE868FEF742F841
:103B3000204670BD2DE9FF479946DDF830A090463C
:103B40000D4606004FF0000705D14FF4D372E6A1F1
:103B5000EBA000F069FCE34C206880B1CDE900588F
:103B60000296062D11DAFFF711FC02284FF0000330
:103B700009D0002269462068FEF756F9074604B0CE
:103B80003846BDE8F0875246F4E700234A466946C6
:103B9000FEF742FBF2E770B586B0D24E53E00198D3
:103BA000002806DADDE90301029A9047019800280F
:103BB00049DB039C606910B1201DFEF713F805A8CE
:103BC00000F04DF9054601980A283CD2DFE800F0E4
:103BD0000505053B273805053B270298A1690346E3
:103BE00001442A462046FFF78BFF00282BD0616A4C
:103BF00020468847E069012825D1002000900298DE
:103C0000A1690023421819462046FFF793FFD0B957
:103C100040F22132B4A1BAA000F006FC13E00298F1
:103C2000A06128B94FF44E72AFA1B5A000F0FCFB23
:103C3000A0692B4641191A462046FFF761FF02E0B2
:103C4000204600F074FB00231A4601A93068FEF7F5
:103C5000F0F90028A3D106B070BDA24CE06801685D
:103C600039B1002139B1002000F00BF9FFF793FFC3
:103C7000F4E70121F6E7C0680068F5E710B500F049
:103C80003BFA984C2068A0B9A148FDF779FFA048FD
:103C90001430FDF775FF9E48E0601430206100226B
:103CA00010210520FDF7F0FF206010B199A1FEF76B
:103CB00074FCBDE8104000F039BA1CB50024FFF7D1
:103CC000DDFF8848006868B186491F20091DCDE9DD
:103CD000000100234FF4827290A19248FEF74AFD42
:103CE000040005D140F233127FA185A000F09CFBB7
:103CF00020461CBD2DE9F0470746994616460D465D
:103D00002C20DDF820A000F0A7FA040014D0B8465B
:103D10004F46D1462DB94FF4C67283A188A000F05A
:103D200083FBFFF7ABFF04F11801C4F8008081E8C2
:103D3000E002201DFDF72FFF204622E710B5694C59
:103D4000606828B94FF4E87267A16DA000F06CFBC1
:103D5000606810BD10B5040005D140F2D91262A10F
:103D600067A000F061FBA06910BD10B5040005D18B
:103D700040F2E3125CA162A000F056FB606810BD47
:103D800010B5040005D140F2ED1257A15CA000F07F
:103D90004BFB206810BD10B5040005D140F2DA32AB
:103DA00051A157A000F040FB00F0A6F9606908B1EE
:103DB000012400E0002400F0B9F9204610BD10B540
:103DC000040005D140F2EF3247A14DA000F02CFBDA
:103DD00000F092F9246A00F0A9F9204610BD70B5F0
:103DE0000D46040005D140F2FF323FA144A000F08F
:103DF0001BFB00F081F92562BDE8704000F096B928
:103E00007FB56FF0010401AE009486E807003548E5
:103E10001D4600232A4669460068FEF7FDF904B0F6
:103E200070BD2DE9FF412F4C074698462068154686
:103E30000E4628B940F22B422BA131A000F0F4FA33
:103E40004FF0FF30CDE90007CDE90265002342467F
:103E500069462068FDF7E8FF04B0BDE8F08170B561
:103E60000546FFF786F81F4E0446B068844203D229
:103E700000F070F8012000E0002028602046B460C7
:103E800070BDF8B50D460646FEF7D7FD6846FFF74C
:103E9000E6FF0446009810B1FEF741FDF8BD114859
:103EA000ADB101690968D9B10025311B2A46006806
:103EB000FEF794FBFEF733FD0028EFD124494FF0C5
:103EC00080500860BFF34F8FBFF36F8FF8BDA642DD
:103ED000EBD8FEF724FD2146304600F06EF8F8BD21
:103EE0000125E2E7940000202E2E5C4672656552A3
:103EF000544F535C74696D6572732E63000000004B
:103F00004572726F723A25732C25640D0A00000009
:103F1000B8040020546D725100000000546D7220EE
:103F2000537663005B3C00082E2E5C46726565523A
:103F3000544F535C74696D6572732E63000000000A
:103F40004572726F723A25732C25640D0A000000C9
:103F500004ED00E0F8B52F4E27E0C068C46805689E
:103F6000201DFDF73FFE616A20468847E069012871
:103F70001BD1A0692844A84206D924616060211D94
:103F8000F068FDF717FE10E00020034601460090A0
:103F90002A462046FFF7CEFD38B940F29232AFF202
:103FA0007801AFF2640000F03FFAF0680168002980
:103FB000D3D13169C6E90310F8BDF8B505461548F7
:103FC0000E46C068C068C468201DFDF70BFEE0699E
:103FD000012818D1A0692B46411932462046FFF727
:103FE0008FFD80B100200346014600902A462046FE
:103FF000FFF7A0FD38B94FF40272AFF2D401AFF26F
:10400000C00000F011FA616A01B02046BDE8F0403E
:10401000084700009400002069484068401C04D014
:10402000F42268A172A000F0FFF9502080F31188FB
:10403000BFF34F8FBFF36F8FFEE710B5031F4FF035
:1040400080741C601B1F21F001011960191F6C4B4B
:104050000B60143940380A6010BD6A484FF47A7119
:104060000068B0FBF1F14FF0E020491E41610721EB
:10407000016170471CB5644908780190FF20087001
:1040800008788DF800009DF800004D4A00F05000BF
:1040900010700720906007E09068401E90609DF8C7
:1040A000000040008DF800009DF800000006F3D4E9
:1040B000107A000200F4E0609060019808705348A4
:1040C000016841F470010160016841F070410160D4
:1040D000FFF7C3FF00205060FCF798F800201CBDDC
:1040E00037484068B0F57A7F05D04FF4B57235A1F6
:1040F0003FA000F099B97047502080F31188BFF3BA
:104100004F8FBFF36F8F2E494868401C48600128CD
:104110000BD13E481C38006810F0FF0F05D04FF45B
:10412000BD7228A132A000F07FB9704710B5244CB1
:10413000606828B940F2811222A12DA000F074F924
:104140006068401E606001D180F3118810BD10B519
:10415000502080F31188BFF34F8FBFF36F8FFEF7AE
:1041600081FB20B129494FF080501C3908600020A4
:1041700080F3118810BD10B5FCF77EF8104C1028A4
:104180000CD300F1E02090F8F0032178884205D2AA
:104190004FF42A720BA116A000F046F91B48143800
:1041A0000068A16800F4E060884207D9BDE81040CB
:1041B0004FF42E7203A10EA000F036B910BD00001E
:1041C000A80000202E2E5C4672656552544F535C49
:1041D000706F727461626C655C525644535C4152FC
:1041E0004D5F434D335C706F72742E6300000000AE
:1041F0004572726F723A25732C25640D0A00000017
:10420000194000081000002000E400E020ED00E06C
:1042100030B5744900E011460A688242FBD34B680E
:104220005C18844203D140681844486008464368DB
:104230001C18944209D16B4C103C2468A24209D04E
:1042400052681A4442600A6812680260814200D0D3
:10425000086030BD0460F9E72DE9F041054600260D
:10426000FEF7EBFB5F4F103F386808B900F098F895
:10427000F86805424ED1002D4CD0083568070BD0A8
:1042800005F00700C0F108000544680704D0BF220C
:1042900055A15FA000F0C8F8002D3BD0786885429A
:1042A00038D850490846046801E021460446606851
:1042B000A84202D220680028F7D13868B846844264
:1042C00028D00E682068086060680836401B1028F7
:1042D0000ED96719780704D0EC2243A14CA000F056
:1042E000A3F86068401B786038466560FFF790FF70
:1042F0006168D8F804004246401AC8F80400D8F8AB
:104300000830984200D29060D8F80C000143002099
:10431000C4E90001FEF703FB700705D04FF4967265
:1043200031A13BA000F080F83046BDE8F08170B5C7
:1043300000282BD02B4DA0F10804103D6068E968DF
:10434000084205D14FF4A07227A131A000F06CF80B
:10435000206828B140F2411223A12DA000F064F89A
:104360006068E968084211D02268002A0ED18843AB
:104370006060FEF762FB6068696808446860204618
:10438000FFF746FFBDE87040FEF7C9BA70BD15489B
:10439000103840687047134810388068704770477D
:1043A0001F484FF4A041420706D0C01D1C4920F011
:1043B0000700411AC1F5A0410A4A00230144C2E99D
:1043C00000030839103A21F0070111604B600B60BF
:1043D0000B1AC0E9001393604FF000405360D060A7
:1043E00070470000C40000202E2E5C4672656552A6
:1043F000544F535C706F727461626C655C4D656D97
:104400004D616E675C686561705F342E630000000B
:104410004572726F723A25732C25640D0A000000F4
:10442000E0040020704700000FB4044910B503AA4F
:10443000029800F0D5F910BC5DF814FB380000209C
:104440000FB41CB5074B06AA7B446946009005983B
:1044500000F097F90020694600F0A6F91CBC5DF851
:1044600014FB00005D0300002DE9F0410E460446F8
:10447000002020622046E168884730B3252805D017
:10448000D4E901219047206A401CF2E7E168204608
:1044900000278847050018D0A5F14100192802D847
:1044A00020354FF400673246294620462760FBF747
:1044B00079FE40B1012804D0F61D26F00706083623
:1044C000D8E7361DD6E72846DAE7206ABDE8F0814E
:1044D00070B50C460546012A05D02878800600D51F
:1044E000EA69002302E0012305E05B1C934202D24B
:1044F000E05C0028F9D1A869E618C01AA861286A0A
:10450000184428622846AFF3008004E0D5E9012171
:1045100014F8010B9047B442F8D32846AFF300805B
:1045200070BD00002DE9F041064600241068752991
:10453000314616A510D0AFF30080002802DA4042C1
:1045400013A507E031688A0701D512A502E04907E3
:1045500004D511A5012401E0AFF3008000210A2257
:1045600006F1240709E0B0FBF2FCB0FBF2F302FB1A
:104570001C00303078541846491C0028F3D12346DB
:104580002A463046BDE8F04100F09CB8000000002B
:104590002D0000002B0000002000000040EA010375
:1045A000024630B59B0710D14FF0013400E008C23D
:1045B00008C91D1B9D4315EAC41FF8D013F0FF0165
:1045C00002F8011B0DD01B0AF8E711F8013B002B84
:1045D00002F8013B05D011F8013B002B02F8013B2A
:1045E000F3D130BD10B5431C02E010F8011B71B1CE
:1045F0008107FAD14FF0013202C88C1A8C4314EAB9
:10460000C211F9D0C01A0A0603D0C01E10BDC01ACC
:1046100010BD0A0401D0801E10BD0902FCD0401E4E
:1046200010BD032A40F2308010F0030C00F015801A
:1046300011F8013BBCF1020F624498BF11F801CBA5
:1046400000F8013B38BF11F8013BA2F1040298BF0A
:1046500000F801CB38BF00F8013B11F0030300F074
:10466000D180083AC0F0088051F8043B083A51F86C
:1046700004CBA0E80810F5E7121D5CBF51F8043B1D
:1046800040F8043BAFF30080D20724BF11F8013B90
:1046900011F801CB48BF11F8012B24BF00F8013BF2
:1046A00000F801CB48BF00F8012B704702F0FF0370
:1046B00043EA032242EA024200F0D8B8704770474A
:1046C000704770472DE9F0470D46994692460446DB
:1046D00000F124080168880604D5E06921F0100182
:1046E000216000E00120A84201DD471B00E0002717
:1046F000A1697A1902EB0900081AA0612078C006A6
:1047000002D42046AFF30080002608E0D4E901215E
:104710001AF806009047206A401C761C20624E451D
:10472000F4DB2078C0060AD52046AFF3008006E00F
:10473000D4E9012130209047206A401C2062381EB5
:10474000A7F10107F4DC07E0D4E9012118F805001E
:104750009047206A401C2062281EA5F10105F3DC69
:104760002046AFF300802078000602D50220BDE885
:10477000F0870120FBE7000001694A1C026108780C
:10478000704700B58FB0CDE9013100210591054991
:104790007944CDE9031011466846FFF765FE0FB076
:1047A00000BD0000E5FFFFFF0A6802F8010B0A6088
:1047B000704710B5436913B1AFF3008001E0FFF714
:1047C00087FE012010BD127800F124010A7000223A
:1047D0004A700122EDE711684FF0FF32E9E700006F
:1047E000074B70B50D467B44FFF7CBFF04462846C8
:1047F00000F05CF810B14FF0FF3070BD204670BD86
:1048000061BEFFFF10B5203AC0F00B80B1E8185030
:10481000203AA0E81850B1E81850A0E81850BFF4AA
:10482000F5AF5FEA027C24BFB1E81850A0E8185049
:1048300044BF18C918C0BDE810405FEA827C24BF9D
:1048400051F8043B40F8043B08BF7047D20728BF2B
:1048500031F8023B48BF11F8012B28BF20F8023B7A
:1048600048BF00F8012B70474FF000020429C0F048
:10487000128010F0030C00F01F80CCF1040CBCF18E
:10488000020F18BF00F8012BA8BF20F8022BA1EBE4
:104890000C0100F011B85FEAC17C24BF00F8012BC5
:1048A00000F8012B48BF00F8012B7047007B00F097
:1048B000800070474FF0000200B5134694469646BC
:1048C000203922BFA0E80C50A0E80C50B1F1200123
:1048D000BFF4F7AF090728BFA0E80C5048BF0CC0D1
:1048E0005DF804EB890028BF40F8042B08BF70472F
:1048F00048BF20F8022B11F0804F18BF00F8012BA1
:104900007047754600F02CF8AE46050069465346E0
:1049100020F00700854618B020B5FBF72DFFBDE855
:1049200020404FF000064FF000074FF000084FF016
:10493000000B21F00701AC46ACE8C009ACE8C009A7
:10494000ACE8C009ACE8C0098D46704710B5044614
:10495000AFF300802046BDE81040FBF73EBC0000EE
:1049600000487047E05400208849000800000020FB
:10497000CC0000006C010008544A0008CC00002064
:10498000745A0000880100080000000000000000C8
:10499000000000000000000000A24A040000000027
:1049A00000000000010203040607080900000000DF
:1049B00000000000000000000000000000000000F7
:1049C00000000000020406080000000001020304C9
:1049D00001020304060708090000000000000000AF
:1049E00000000000000000000000000000000000C7
:1049F00000000000000000000000000000000000B7
:104A000000000000000000000000000000000000A6
:104A10000000000000000000000000000000000096
:104A20000000000000000000000000000000000086
:104A300000000000AAAAAAAA0000000000000000CE
:104A40000000000000000000000000000000000066
:044A50000000000062
:0400000508000131BD
:00000001FF
